:020000040800F2
:10000000680700209D010008C90B00083F0B00088D
:10001000C50B00085D080008FB1400080000000084
:10002000000000000000000000000000A50D000816
:100030006108000800000000590C0008FD0E0008CF
:10004000B7010008B7010008B7010008B7010008B0
:10005000B7010008B7010008B7010008B7010008A0
:100060006508000889080008B1080008B701000801
:10007000B7010008B7010008B7010008B701000880
:10008000B7010008B7010008B7010008B701000870
:10009000B7010008B7010008B7010008B701000860
:1000A000B7010008B7010008B7010008B701000850
:1000B000B7010008690F0008B7010008B701000880
:1000C000B7010008B7010008B7010008B701000830
:1000D000B7010008DD120008B7010008B7010008E9
:1000E000B7010008B7010008B7010008B701000810
:1000F000B7010008B7010008B7010008B701000800
:10010000B7010008B7010008B7010008B7010008EF
:10011000B7010008B7010008B7010008B7010008DF
:10012000B7010008B7010008B7010008B7010008CF
:10013000B7010008B7010008B7010008B7010008BF
:10014000B7010008B7010008B7010008B7010008AF
:10015000B7010008B7010008B7010008B70100089F
:10016000B7010008B7010008B7010008B70100088F
:10017000B7010008B7010008B7010008B70100087F
:10018000B7010008B7010008DFF80CD000F0C6FA8C
:1001900000480047B127000868070020064880474C
:1001A00006480047FEE7FEE7FEE7FEE7FEE7FEE75C
:1001B000FEE7FEE7FEE7FEE7010F00088901000801
:1001C00000F0004230F000400AD0C10D01F560712E
:1001D000C0F3160042EA0151C208400711437047BC
:1001E00000200146704701F0004330B421F0004187
:1001F00050EA010206D00A0DA2F56072C1F31301A4
:10020000002A02DC30BC00207047440F44EAC104DD
:10021000C100E01830BC00EBC25000F047B830B568
:100220000B46014600202022012409E021FA02F5B4
:100230009D4205D303FA02F5491B04FA02F528444E
:10024000151EA2F10102F1DC30BD2DE9F05F05467B
:10025000002092469B4688460646814640241BE085
:10026000284641464746224600F079FA53465A4608
:10027000C01A914110D311461846224600F060FA88
:100280002D1A67EB01084F4622460120002100F09D
:1002900057FA17EB00094E41201EA4F10104DFDCE0
:1002A000484631462A464346BDE8F09F0029A8BF8C
:1002B0007047401C490008BF20F00100704710B48F
:1002C000B0FA80FC00FA0CF050EA010404BF10BC44
:1002D000704749B1CCF1200421FA04F411FA0CF171
:1002E00018BF012121430843A3EB0C01CB1D4FEAAA
:1002F00000614FEA102042BF002010BC704700EBA5
:10030000C35010440029A4BF10BC7047401C4900D2
:1003100008BF20F0010010BC70472DE9FE4F804659
:1003200081EA0300C00F0C46009021F0004123F049
:100330000045B8EB0200A94105D24046214690464F
:100340001C460B46024623F00040104347D0270DC1
:10035000C7F30A00C3F30A510290401A01904028E3
:100360006BDAC3F3130040F4801B0098924620B16F
:100370000023D2EB030A63EB0B0B01985946C0F143
:100380004002504600F0DCF906460D4650465946FC
:10039000019A00F0F4F910EB08006141002487EAAB
:1003A000115284EAE7731A4340D0009A62B3019A6B
:1003B000012A4FEA075215DC001B61EB02014FF0E6
:1003C000004202EA0752CDE90042001C41F58011CB
:1003D00032462B4600F0F4F903B0BDE8F08F4046FA
:1003E0002146F9E7001B61EB0201001C41F5801377
:1003F00000185B412018A2F5001747EB030140EA03
:10040000D570B6196D4111E06D084FEA360645EA20
:10041000C0754FEA0752001B61EB0201001C41F559
:10042000801149084FEA30000019514132462B46ED
:1004300003B0BDE8F04F00F0B4B9009801224000CD
:100440000023D0EB020263EBE073009821464FEAF1
:10045000E074B8EB000061EB0401E9E783F00043CE
:100460005BE781F0004158E72DE9FE4F81EA030484
:1004700004F0004421F0004100944FF0000B23F001
:10048000004350EA01045ED052EA03045BD0C3F398
:100490000A54C1F30A552C44A4F2F3340194A0FB8E
:1004A0000254C1F3130141F48011C3F3130343F465
:1004B000801301FB024400FB034E840A970A44EABE
:1004C000815447EA8357A4FB076802958D0A05FB10
:1004D00007854FEA932C04FB0C542705029D4FEA35
:1004E000065847EA1637B5EB08056EEB070C870E82
:1004F000920E47EA811742EA8312A7FB0201B6EB8C
:100500000B0164EB00042B0D43EA0C335E1844EB43
:100510001C50DA465146E7FB0201C5F313044FEACB
:100520000B3343EA14534FEA0432019C43EA0603B7
:10053000A4F10C040294009CCDE900B400F040F951
:1005400003B0BDE8F08F00200146F9E72DE9F04D3A
:1005500081EA030404F0004B21F0004514464FF0FB
:10056000000A23F0004150EA050220D054EA0102BB
:100570001DD0C5F30A570246C5F31303C1F3130098
:10058000C1F30A5640F4801543F48013A7EB060824
:10059000101BD64608F2FD3873EB050002D308F1B4
:1005A000010801E092185B41B8F1000F03DA002066
:1005B0000146BDE8F08D00204FF4801106468446C8
:1005C0000EE0171B73EB050705D3121B63EB050346
:1005D00006434CEA010C49084FEA300092185B418F
:1005E00050EA0107EDD152EA030012D082EA04007A
:1005F00083EA0501084305D0101BAB4106D2012256
:10060000002306E000224FF0004302E06FF00102F9
:1006100053101AEB06004CEB085110EB0A0041EBAB
:100620000B01BDE8F04D00F0BCB80EB5C10F80EA7B
:10063000E0700844CA07002140F233438DE80E0001
:100640000A460B4600F0BCF803B000BD70B5C1F31C
:100650000A5201F000450024C1F3130140F2FF33B8
:1006600041F480119A4201DA002070BD40F2334318
:100670009A42A2F2334203DC524200F070F800E0EA
:1006800090402C43F1D0404270BDC1F30A52C1F3F7
:10069000130140F2FF3341F480119A4202DA002044
:1006A0000146704740F233439A42A2F2334202DCE1
:1006B000524200F054B800F043B8000030B5041EB8
:1006C00071F1000404DB4FF00044404264EB01018F
:1006D000141E73F1000405DB1C464FF00043524228
:1006E00063EB04038B4208BF824230BD30B5041E69
:1006F00071F1000404DB4FF00044404264EB01015F
:10070000141E73F1000405DB1C464FF000435242F7
:1007100063EB0403994208BF904230BD064C074D7D
:1007200006E0E06840F0010394E8070098471034C1
:10073000AC42F6D3FFF72CFDF02800081029000882
:10074000202A04DB203A00FA02F100207047914091
:10075000C2F1200320FA03F3194390407047202A86
:1007600004DB203A21FA02F00021704721FA02F35B
:10077000D040C2F120029140084319467047202A18
:1007800006DBCB17203A41FA02F043EAE07306E0B9
:1007900041FA02F3D040C2F12002914008431946C9
:1007A000704710B5141E73F1000408DA401C41F1C3
:1007B000000192185B411A4301D120F0010010BDE5
:1007C0002DE9F04D92469B4611B1B1FA81F202E05B
:1007D000B0FA80F220329046FFF7B2FF04460F468F
:1007E00040EA0A0041EA0B0153465A46084313D037
:1007F000114653EA010019D0C8F140025046FFF7F4
:10080000AEFF05460E46504659464246FFF798FF52
:10081000084305D0012004E020463946BDE8F08DAC
:100820000020054346EAE0762C4337430A986305E7
:10083000E40AA0EB08000022FD0A44EA47540A300B
:1008400002D500200146E9E7010510196941DDE9FB
:10085000084500196941BDE8F04DA2E700BFFEE779
:100860007047000010B5142001F02CFF042105484A
:1008700000F058F908B900F063FF042000F02CF8EC
:1008800010BD00000010024010B5142001F01AFF46
:100890000821064800F046F918B94FF4FA6000F054
:1008A000D3FF082000F018F810BD0000001002402F
:1008B00010B5142001F006FF1021064800F032F9AF
:1008C00018B94FF4FA6000F08DFF102000F004F822
:1008D00010BD000000100240014908607047000090
:1008E000143C0140002123498279002A3AD00A466B
:1008F000126803689A430B461A600A1D126803685F
:100900009A430B1D1A60027911440A6803681A435E
:100910000A60184A0832126803689A43154B083374
:100920001A601A1D126803689A43124B0C331A603E
:100930004279102A0ED11A1F126803681A430D4B10
:1009400008331A601A1D126803681A43094B0C33E6
:100950001A600DE00749427911440A6803681A4396
:100960000A6005E0027911440A6803689A430A6044
:1009700070470000003C01400EB500F0E3F8012193
:10098000880300F08BF90421084600F00DFA1020CE
:10099000019001208DF80A0000208DF808000C203D
:1009A0008DF8090001A8FFF79DFF0321042000F046
:1009B000FBF90820019001208DF80A0000208DF835
:1009C00008000C208DF8090001A8FFF78BFF022119
:1009D000042000F0E9F90420019001208DF80A00BC
:1009E00000208DF808000C208DF8090001A8FFF701
:1009F00079FF4FF4C06000F025F90A208DF800005F
:100A000003208DF801008DF8020001208DF803000D
:100A1000684600F0DBF809208DF8000002208DF810
:100A200001008DF8020001208DF80300684600F0F7
:100A3000CDF808208DF8000001208DF801008DF818
:100A400002008DF80300684600F0C0F80EBDF0B556
:100A50000A4600210023002400BF3DE0012505FADD
:100A600001F3156805EA03049C4234D105684F0080
:100A70000326BE40B543056015794E00B5400668B3
:100A8000354305601579012D02D01579022D16D157
:100A900085684F000326BE40B543856055794E00FA
:100AA000B540866835438560456801268E40B5436C
:100AB0004560456896798E40B6B235434560C56855
:100AC0004F000326BE40B543C560D5794E00B54002
:100AD000C6683543C560491C1029BFD3F0BDF0B5C9
:100AE000002300244D07ED0E02FA05F3CE1000F1AD
:100AF000200555F826504E07F70E0F26BE40B54389
:100B0000CF1000F1200646F82750CE1000F1200546
:100B100055F8265045EA0304CE1000F1200545F8AB
:100B20002640F0BD0246002013690B400BB10120A6
:100B300000E000207047418370470183704700BF89
:100B4000FEE700001CB50121112000F087F81C20F1
:100B5000009000208DF8040003208DF8050001208E
:100B60008DF8070069460648FFF771FF01200090E5
:100B700002208DF8070069460248FFF768FF1CBD98
:100B800000100240000002401CB50121084600F0A0
:100B900065F8C020009001208DF8040000208DF839
:100BA000060003208DF8050001208DF80700694636
:100BB0000348FFF74CFFC0210148FFF7BEFF1CBDF3
:100BC0000000024000BFFEE77047000070B5002142
:100BD00000230F22C4781CB3174C246804F4E0648B
:100BE000C4F5E064C4F30721C1F10404E3B20A418F
:100BF00044789C40E1B28478144021430C07210ED4
:100C00000E4C05786155047804F01F050124AC40B2
:100C100005786D11AD0005F1E025C5F8004109E04A
:100C2000047804F01F050124AC40054D06787611C8
:100C300045F8264070BD00000CED00E000E400E047
:100C400080E100E002490143024A11607047000060
:100C50000000FA050CED00E07047000029B1064ADB
:100C600012680243044B1A6004E0034A126882438C
:100C7000014B1A60704700003038024029B1064A23
:100C800012680243044B1A6004E0034A126882436C
:100C9000014B1A60704700004038024029B1064AF3
:100CA00012680243044B1A6004E0034A126882434C
:100CB000014B1A607047000044380240F0B5002133
:100CC00000220024022500260223324F3F6807F04D
:100CD0000C0121B1042905D0082937D105E02E4F98
:100CE000076036E02D4F076033E02A4F3F1F3F6813
:100CF000C7F38056274F3F1F3F6807F03F036EB191
:100D0000264FB7FBF3F7DFF88CC0ACF1040CDCF82E
:100D100000C0CCF3881C07FB0CF40CE01E4FB7FBA3
:100D2000F3F7DFF870C0ACF1040CDCF800C0CCF3D2
:100D3000881C07FB0CF4174F3F1F3F68C7F30147A0
:100D40007F1C7D00B4FBF5F7076002E0124F0760DF
:100D500000BF00BF0F4F3F6807F0F0010909104FB7
:100D60007A5C0768D74047600A4F3F6807F4E05154
:100D7000890A0B4F7A5C4768D7408760054F3F6808
:100D800007F46041490B064F7A5C4768D740C7605B
:100D9000F0BD0000083802400024F40000127A0080
:100DA000000000207047000030B500228B071C0FA8
:100DB0000F2303FA04F20B4B8C1053F824309343A7
:100DC000084C8D1044F8253023468C1053F82430FD
:100DD0008C07240F00FA04F42343024C8D1044F8CE
:100DE000253030BD083801400CB50020019000903E
:100DF0003448006840F480303249086000BF314810
:100E0000006800F4003000900198401C01900098A8
:100E100018B90198B0F5A04FF1D12A48006800F444
:100E2000003010B10120009001E0002000900098F7
:100E3000012846D123484030006840F080502149C5
:100E4000403108602048006840F440401E49086076
:100E50001C48083000681B490831086008460068D3
:100E600040F4004008600846006840F4A050086064
:100E70001648091F0860081F006840F08070091FAD
:100E8000086000BF0F48006800F000700028F9D02B
:100E900040F205700E4908600A480830006820F0EA
:100EA00003000849083108600846006840F0020065
:100EB000086000BF03480830006800F00C000828F4
:100EC000F8D10CBD003802400070004008544007C3
:100ED000003C0240042808D14FF0E021096941F0AC
:100EE00004014FF0E022116107E04FF0E0210969B1
:100EF00021F004014FF0E0221161704770470000BB
:100F000010B51548006840F4700013490860134894
:100F1000006840F001001149086000200F490831C5
:100F200008600E4800680E4908400C4908600D48EA
:100F3000091D0860081F006820F48020091F086050
:100F4000002006490C310860FFF74EFF4FF00060AB
:100F500001498039086010BD88ED00E0003802408A
:100F6000FFFFF6FE1030002410B52DED028B00209F
:100F700008EE100A0221724800F00AF9002830D069
:100F800002216F4800F0F2F86D4800F0FEF880B2E0
:100F900008EE100A6B480078401C6A490870084641
:100FA000007802281DD100200870674800780128C9
:100FB00036D166480068401C6449086008460068ED
:100FC00064280FD20968491E614A32F8110000EB0B
:100FD000D071491000EE101AB8EEC00A5D4981EDDB
:100FE000000A9BE059490968491E594A32F8110024
:100FF00000EBD071491000EE101AB8EEC00A554946
:1010000081ED000A5448006818B102204E4908706A
:1010100002E003204C49087000204C4908607DE044
:1010200049480078022829D148480068401C4749AF
:1010300008604749B1F8C60000EBD071491000EED6
:10104000101AB8EEC00A434981ED000A3F48006813
:1010500041490968884261D10120404908704048EF
:10106000007820B940213F48FFF765FD56E0032096
:10107000354908700020354908604FE03248007853
:10108000032828D131480068401C304908600846D0
:101090000068652810D20968C1F164012C4A32F851
:1010A000110000EBD071491000EE101AB8EEC00A22
:1010B000284981ED000A31E000220221204800F099
:1010C00078F800211E4800F054F800201F490860FD
:1010D0001D49087022E01C48007804281ED11B48D6
:1010E0000068401C19490860084600681A490968E8
:1010F000884205D29FED1C0A164880ED000A0DE0DB
:10110000002202210E4800F054F800210C4800F0A3
:1011100030F800200D4908600B490870B8EE480A05
:101120000C48D0ED000A30EE200ABCEEC00A10EEEA
:10113000100A81B2024800F08CF8BDEC028B10BDA1
:101140000004004021000020200000201C0000209E
:10115000D4010020240000201400002010000020F2
:1011600011000020000002400000FA44CA4302823D
:10117000704721B1028842F00102028004E0028837
:101180004FF6FE731A40028070470146486B704765
:1011900030B50246002000230024158A05EA010329
:1011A000958905EA010413B10CB1012000E000208B
:1011B00030BD1AB183890B43838102E083898B435D
:1011C0008381704770B5002400220023058C4FF600
:1011D000FE7635400584028C8388048B4FF68F752C
:1011E0002C40B51E2C400D882C43751E2A408D893D
:1011F0002A434D882A43104DA84202D00F4DA842E1
:1012000013D14FF6F7752A40CD892A434FF6FB7567
:101210002A408D882A434FF6FF652B404FF6FF5535
:101220002B400D8A2B434D8A2B43838004838D688A
:101230004563028470BD00000000014000040140CD
:101240000A460021018B4FF6F773194011430183C1
:10125000704741637047000000220288184B984293
:101260000ED0184B98420BD0B0F1804F08D0164BDF
:10127000984205D0154B984202D0154B984204D1A4
:101280004FF68F731A404B881A43124B984207D07F
:10129000114B984204D04FF6FF431A400B891A4372
:1012A00002804B68C3620B880385054B984202D0CD
:1012B000044B984201D18B7A0386012383827047C5
:1012C000000001400004014000040040000800400C
:1012D000000C0040001000400014004010B540F227
:1012E00025511D4800F04AF810B31B4800F000F9E2
:1012F000C4B21A48008800F40040C8B917480088F2
:1013000000F4804060B10A2C03D00020134908800B
:1013100020E01248008840F400401049088019E09D
:101320000D2C06D10D48008840F480400B49088000
:1013300010E00A480088C0F30D0009490C54074822
:101340000088401C0549088008460088C72801DD40
:101350000020088010BD0000001001402C0000207B
:101360009C02002021B1828942F40052828104E073
:1013700082894DF6FF731A408281704770B502462C
:10138000002400230025002040F66A16B14200D157
:1013900000BFC1F3421501F01F03012606FA03F353
:1013A000012D02D19689334006E0022D02D1168A22
:1013B000334001E0968A33400C12012606FA04F409
:1013C0001688344013B10CB1012000E0002070BD3C
:1013D000F0B50346002400260025002040F66A17D9
:1013E000B94200D100BF1846C1F3421401F01F06F4
:1013F000012707FA06F5012C01D10C3004E0022C7C
:1014000001D1103000E014301AB107682F43076093
:1014100002E00768AF430760F0BD00002DE9FF4719
:1014200005460E460024A14600BFA046B08900B183
:1014300000BF2C8A24F44054F08804432C82AC89E9
:1014400041F20C608443B0883189084371890843B4
:101450000443AC81AC8A24F44074B0890443AC8268
:101460006846FFF72BFC2048854202D01F48854282
:1014700002D1DDF80C9001E0DDF80890A88900F4B5
:10148000004040B109EBC90000EB09103168490088
:10149000B0FBF1F707E009EBC90000EB0910316878
:1014A0008900B0FBF1F76420B7FBF0F004012009DC
:1014B000642101FB1078A88900F4004040B132207B
:1014C00000EBC800B0FBF1F000F00700044308E0B7
:1014D000322000EB08106421B0FBF1F000F00F00A7
:1014E00004432C81BDE8FF87001001400014014037
:1014F00001468888C0F30800704700BFFEE700007F
:101500000021044A11600221034A11700349086056
:10151000704700001C000020200000201400002064
:1015200030B52DED088B81B000249FED470A474868
:1015300080ED000A9FED460A80ED010A9FED450A05
:1015400080ED020AB1EE000A80ED030A90ED000A78
:10155000F0EE000A80EE201AB0EE418A90ED020A09
:10156000D0ED010A30EE600AB0EE409A00BF5DE0B7
:10157000364890ED030AF1EE400A00EE104AB8EE4C
:10158000400A30EE480A20EE800AC0EE080A10EE4B
:10159000905A2846FEF714FE41EC1B0BB0EE4B0AA6
:1015A000F0EE6B0A00F0ACF9B0EE40AAF0EE60AAE3
:1015B00051EC1A0BFEF717FE00EE100AF7EE000AC8
:1015C00070EE208A89EE280A2048D0ED010A30EE1C
:1015D000200A214800EB840080ED000A1E4800EB41
:1015E000840090ED000ADFED1D0A80EE801ABCEE4B
:1015F000C10A10EE100A1A4921F81400164800EB2F
:10160000840090ED000A10EE101A0846FEF7D8FD8F
:1016100041EC1A0B124830F8140053EC1A2B2146F7
:10162000009010A000F042F9601CC4B2074890ED91
:10163000000ABCEEC00A10EE100AC0B2A04297DC4D
:1016400001B0BDEC088B30BD0000C8423400002062
:10165000000048430000FA46440000200024F449FA
:10166000D4010020256420737465703A2066726589
:101670007175656E63793A20252E32662C2070755F
:101680006C73653A25642E0D0A0000001CB501211B
:101690000220FFF7F3FA01210846FFF7DFFA0222E2
:1016A00006211348FFF71BFA4020009002208DF816
:1016B00004008DF8050000208DF8060001208DF84B
:1016C000070069460A48FFF7C2F980200090012010
:1016D0008DF8040002208DF8050000208DF806002A
:1016E00001208DF8070069460148FFF7B0F91CBDDD
:1016F0000000024010B500200D49086001200D498E
:10170000087080210C48FFF716FA7D2000F0F6FFE4
:1017100000F02CF802210948FFF728FD01220221E0
:101720000648FFF746FD01210448FFF722FD10BDE2
:101730001C000020200000200000024000040040A7
:1017400010B500210648FFF714FD002202210448CD
:10175000FFF72FFD0020034908600349087010BD02
:10176000000400401C0000202000002000B589B0CB
:101770002920ADF818004FF6FF7007900020ADF853
:101780002000ADF81A0006A91548FFF765FD3020C6
:10179000ADF804004FF4FA6003900120ADF80600A4
:1017A0000220ADF8100001A90D48FFF70BFD002144
:1017B0000B48FFF745FD4FF4A060FFF743FA1D20EB
:1017C0008DF8000002208DF8010001208DF8020044
:1017D0008DF803006846FFF7F9F909B000BD000075
:1017E0000004004010B5044600201249086004209F
:1017F000114908701148046080211148FFF79BF9D6
:10180000642000F07BFF80210D48FFF796F97D20D2
:1018100000F074FFFFF7AAFF02210A48FFF7A6FCB9
:10182000012202210748FFF7C4FC01210548FFF708
:10183000A0FC10BD1C00002020000020140000208F
:10184000000002400004004010B504460020124988
:101850000860042011490870114804608021114873
:10186000FFF76BF9642000F049FF80210D48FFF776
:1018700062F97D2000F042FFFFF778FF02210A485D
:10188000FFF774FC012202210748FFF792FC0121B7
:101890000548FFF76EFC10BD1C0000202000002052
:1018A0001400002000000240000400400FB4054B6B
:1018B00010B503A9044A029800F04EFB10BC5DF875
:1018C00014FB0000952700082800002003B40198AD
:1018D0004100009850EAC12018BF04204A0D18BFEB
:1018E00040F0010040F2FF72B2EB515F08BF40F0E0
:1018F0000200012808BF052002B070470000000068
:1019000070B52DED020B2DED0A8B82B00D98C40F32
:1019100020F00045AE48854248D3AE48854219D3F1
:101920000C99C5F31300084309D09DED0C0B02B0D0
:10193000BDEC0A8B02B0BDE8704000F009BA002C83
:1019400014BF9FEDA50B9DED0C0B02B0BDEC0A8BF7
:1019500002B070BD9FEDA20B53EC102B9DED0C0B54
:1019600051EC100BFEF7C2FE0AD2022000F02CFA56
:1019700002B0BDEC0A8B02B0BDE8704000F0F4B9D3
:101980009FED990B53EC102B9DED0C0B51EC100BB4
:10199000FEF794FE0AD2022000F016FA02B0BDEC67
:1019A0000A8B02B0BDE8704000F0EEB990489FEDA0
:1019B00092BBA8425CD29248854219D291487844A1
:1019C00000EBC40090ED000B53EC102B9DED0C0BC5
:1019D00051EC100BFEF742FD41EC1A0B8A4878449B
:1019E00000EBC40090ED009BC4F10100041B36E045
:1019F0009FED870B53EC102B9DED0C0B51EC100B56
:101A0000FEF732FD41EC100B8348784400EBC40034
:101A100090ED001B51EC100B53EC112BFEF77DFCED
:101A2000FEF714FE0446FEF700FE41EC180B9FED96
:101A30007C0B53EC102BFEF717FD9DED0C1B53ECAC
:101A4000112BFEF70EFD41EC1A0B9FED770B51ECBD
:101A5000180B53EC102BFEF707FD41EC190B51EC62
:101A60001A0B53EC192BFEF7F9FCCDE90C011BE026
:101A70006F48854217D29FED700B53EC102B9DEDF4
:101A80000C0B51EC100BFEF748FC53EC1B2BFEF734
:101A90002DFE08D29DED0C0B53EC1B2B51EC100BC3
:101AA000FEF73BFC6EE000249DED0C0B53EC102B7D
:101AB00051EC100BFEF7D8FC41EC180B60480521E7
:101AC000B0EE480AF0EE680A784400F0C5F853EC2E
:101AD000182B51EC100BFEF7C7FC9DED0C1B53ECC3
:101AE000112BFEF7BEFC41EC180B9FED570B5CB3BE
:101AF00053EC182B51EC100BFEF7B0FC9DED0C0BCA
:101B000041EC1C0B53EC182B51EC100BFEF7ACFC0A
:101B100053EC1C2BFEF71AFD53EC192BFEF7A1FC1E
:101B200053EC1A2BFEF79AFC53EC1B2BFEF799FC97
:101B3000CDE900016FF47F70844226DB01EB045095
:101B400001909DED000B00E753EC102B51EC180BAE
:101B5000FEF784FC9DED0C0B41EC190B53EC182B9C
:101B600051EC100BFEF780FC53EC192BFEF7EEFC4A
:101B70009DED0C1B53EC112BFEF770FC53EC1B2B53
:101B8000FEF76FFC41EC100BDFE608464FF07A5190
:101B900001EB04519FED2E0B084453EC102B0190E8
:101BA0009DED000B51EC100BFEF75EFC0D4645EC75
:101BB000100B044651EC100BFFF788FE042808BFF9
:101BC00000F0E2F845EC104BBFE60000000000001A
:101BD000422E86400000F07F000000000000000060
:101BE000EF39FAFE422E864051302DD5104987C07C
:101BF000422ED63F00000000000000000000F03F31
:101C0000B2A2F03FE60E0000D60E00000000000079
:101C1000FE822B654715F73F8A0E0000000000008A
:101C20000000E0FE422EE63F763C7935EF39EA3D92
:101C30000000303E000000009C7500883CE4377EC8
:101C4000FC0D00000000000000000000000000404B
:101C5000000000000000700170B504462DED028BFD
:101C60004D1E00EBC500B0EE408AF0EE608A90EDAC
:101C7000000B35F0060017D053EC182B51EC100B6D
:101C8000FEF7F2FB41EC100B6D1E04EBC50090ED6E
:101C9000001B51EC100B53EC112BFEF73EFB41ECFB
:101CA000100B35F00600E7D1022D36D0042D1CD0E4
:101CB000062D1CBFBDEC028B70BD53EC182B51ECF4
:101CC000100BFEF7D1FB94ED0A1B53EC112BFEF722
:101CD00024FB53EC182BFEF7C7FB94ED081B53ECC9
:101CE000112BFEF71AFB41EC100B53EC182B51ECA7
:101CF000100BFEF7B9FB94ED061B53EC112BFEF70E
:101D00000CFB53EC182BFEF7AFFB94ED040B53ECDC
:101D1000102BFEF702FB41EC100B53EC182B51EC8F
:101D2000100BFEF7A1FB94ED021B53EC112BFEF7F9
:101D3000F4FA53EC182BFEF797FB94ED001B53ECD1
:101D4000112BFEF7EAFABDEC028B41EC100B70BDD3
:101D500010B553EC102B51EC100BFEF7DEFA41ECF2
:101D6000100B10BD000000009FED050B10B553ECEB
:101D7000102B51EC100BFEF777FB41EC100B10BD54
:101D800000000000000000709FED050B10B553EC43
:101D9000102B51EC100BFEF767FB41EC100B10BD44
:101DA000000000000000001002E008C8121F08C177
:101DB000002AFAD170477047002001E001C1121FCC
:101DC000002AFBD1704700000149086070470000FD
:101DD000300000202DE9FF5F82B00021DDE90430F2
:101DE000020DDDF840B0034318D044F61050A2F2C3
:101DF000FF3242431514119801281FD0A5EB0B00A8
:101E0000401C5FEA000A4FF000064E4FDFF83891A1
:101E1000B046504615D5CAF1000413E011980124CC
:101E20004AA3012801D16FEA0B010298119AC0E977
:101E30000031C0E9024206B0BDE8F09FCBF10000DE
:101E4000DFE704460021404A491842EB0450CDE93F
:101E5000001012E0E00707D032463B4640464946B4
:101E6000FEF702FB8046894632463B46104619463D
:101E7000FEF7FAFA06460F466410002CEAD1DDE9B7
:101E80000401DDE90023BAF1000F06DAFEF7ECFAEF
:101E900042464B46FEF7E8FA05E0FEF757FB42469E
:101EA0004B46FEF753FB04460E460022284BFEF736
:101EB0001DFC03D84FF0FF30014607E00022254B00
:101EC00020463146FEF729FAFEF7DFFB102409E031
:101ED000002C0ADB0A220023FEF7B7F9039B3032FD
:101EE0001A55641E50EA0102F2D1641C039AC4F12F
:101EF00011031444119A012A03D0012208430DD181
:101F00000AE0084304D000204FF0110B119072E753
:101F1000A3EB0B056D1E0DE05B4504DD4FF00002E9
:101F200005F1010504E003DA4FF00002A5F1010517
:101F3000002AECD002981199C0E90231C0E90045AD
:101F400079E70000000014400000F03F300000007E
:101F50000000F0430000E03F2DE9FF4F95B09B46A5
:101F60008946064600250FE2252877D1002427461A
:101F7000F84A0121059400E0044316F8013F203B94
:101F800001FA03F01042F7D130782A2811D06FF00F
:101F90002F033078A0F13002092A16D8059A44F0B0
:101FA000020402EB820203EB42021044761C05900D
:101FB000EFE759F8042B0592002A03DA504244F463
:101FC0000054059044F00204761C30782E2816D177
:101FD00016F8010F44F004042A280DD06FF02F02E8
:101FE0003078A0F13003092B09D807EB870302EB07
:101FF0004303C718761CF3E759F8047B761C307846
:102000006C280FD006DC4C2817D068280DD06A2821
:1020100014D104E0742810D07A280FD10DE044F4D4
:1020200000140AE044F4801401E044F4401472788F
:10203000824202D104F58014761C761C3078662822
:102040000BD013DC582877D009DC002875D0452840
:10205000F6D04628F4D047281AD19DE118E063282D
:1020600035D0642879D0652812D195E1702873D0D5
:1020700008DC6728F1D069286FD06E280DD06F2852
:1020800006D1B5E073282CD0752875D0782874D087
:102090005A46179990476D1C75E1C4F30250022807
:1020A00009D003280DD0D9F8001004280DD00D60F8
:1020B00009F1040967E1D9F80010EA17C1E90052F3
:1020C000F6E7D9F800100D80F2E70D70F0E719F887
:1020D000041B8DF8001000208DF80100EA46012055
:1020E00003E059F804AB4FF0FF3061074FF00001F7
:1020F00002D40DE008F101018846B9420FDA8045AB
:10210000F8DB1AF808100029F4D108E008F1010101
:1021100088468142FADB1AF808100029F6D10598A2
:102120005B46A0EB080721463846179A00F094FA60
:10213000284400EB080507E04DE029E10DE01AF81E
:10214000010B5A4617999047B8F10108F7D25B4640
:1021500021463846179A13E142E00A220092C4F35E
:1021600002524FF0000A022A08D059F804CB032A81
:102170004FEAEC710AD00DE029E02AE009F10701ED
:1021800021F00702F2E802C1914609E00FFA8CFC47
:102190004FEAEC71042A03D14FFA8CFC4FEAEC7140
:1021A000002907DA0A460021DCF1000C61EB02018C
:1021B0002D2202E0220504D52B228DF804200122D5
:1021C00003E0E20701D02022F7E7904659E00A2118
:1021D00002E010220DE010214FF0000A00910BE008
:1021E00010224FF0000A44F004040827009203E094
:1021F00008224FF0000A0092C4F30252022A05D0CE
:1022000059F804CB0021032A08D009E009F107019D
:1022100021F00702F2E802C1914605E01FFA8CFCAA
:10222000042A01D10CF0FF0C4FF00008220728D53A
:10223000702806D0009B83F0100353EA0A0305D0F0
:102240000EE040228DF80420012208E05CEA010241
:1022500006D030228DF804208DF805000222904629
:10226000009B83F0080353EA0A030AD15CEA0102E7
:1022700001D1620705D530228DF804204FF0010806
:102280007F1E582804D034A003900EA802900DE0C1
:1022900036A0F9E753466046009AFDF7D6FF84461C
:1022A0000398825C0298401E029002705CEA010072
:1022B000F0D1029806A9081A00F1200A600702D599
:1022C00024F4803400E00127574502DDA7EB0A0023
:1022D00000E0002000EB0A01009005984144401AFC
:1022E0000590E00306D45B462146179A059800F056
:1022F000B3F90544002706E001A85A46C05D1799C6
:1023000090476D1C7F1C4745F6DBE0030CD55B4610
:102310002146179A059800F09FF9054404E0302003
:102320005A46179990476D1C0099481E0090002945
:10233000F5DC08E0029802995A460078491C02919F
:10234000179990476D1CBAF10001AAF1010AF1DC5E
:1023500065E1000009280100303132333435363769
:1023600038396162636465660000000030313233E1
:102370003435363738394142434445460000000081
:1023800000F058F90544761C307800287FF4ECAD55
:1023900019B02846BDE8F08F620700D4062709F17E
:1023A000070222F0070CFCE80223E14603F0004894
:1023B0005FEA080C02D00FF2702C0DE05FEA045CBB
:1023C00002D50FF2682C07E05FEAC47C02D00FF25E
:1023D000602C01E0AFF2700C4FF0FF3823F00043A7
:1023E000CDF850C065280CD006DC452809D0462819
:1023F0001DD047283DD13DE0662818D067287ED102
:1024000038E00021112F01DB112000E0781CCDE91C
:10241000000106A90EA8FFF7DDFCDDE90F010E9A09
:1024200003910021009207F1010A04914DE04FF061
:1024300000400097CDE9011006A90EA8FFF7CAFCDD
:10244000DDE90F0203920E9B11990022DDF80CA02A
:102450000093049211B9791C00EB010AB7EB0A0052
:1024600004D4C0F1FF3007F1010A0490AAEB070081
:10247000019044E0012F00DA01270021112F01DD36
:10248000112000E03846CDE9000106A90EA8FFF7AB
:10249000A1FCDDE90F010E9A039100210491009245
:1024A000BA4621070CD40399514500DA8A46BAF19D
:1024B000010F05DD009AAAF10101515C302908D015
:1024C000B84202DA10F1040F06DA0121CDE9011059
:1024D00015E0AAF10101E9E7002805DC04990144AF
:1024E0000491AAEB000102E0411C514500DD8A463F
:1024F0000499401A401C01904FF0004002902007C0
:1025000004D40198504501DBCDF8048000208DF8FB
:102510004F0002980DF14F07B0F1004F25D02B204E
:102520000E9002984FF0020800280CDA4042029008
:102530002D200E9007E00A210298FDF770FE303141
:10254000029007F8011DB8F10001A8F10108F2DCC2
:1025500002980028EFD1791E0E980870307800F0AC
:10256000200040F0450007F8020D12A8C01B00F142
:1025700007081498007800B1012000EB0A010198C7
:1025800001EBE07105984144401A401E0590E003BC
:1025900006D45B462146179A059800F05DF805447D
:1025A0001498007818B15A46179990476D1CE003AB
:1025B00024D55B462146179A059800F04DF805444E
:1025C0001CE00498002807DBDDE90301884203DDF5
:1025D0000098405C179901E0179930205A469047BF
:1025E000049805F10105401C04900198401E0190DB
:1025F00004D12E205A46179990476D1CBAF100015C
:10260000AAF1010ADDDC05E017F8010B5A4617991B
:1026100090476D1CB8F10001A8F10108F4DC5B469D
:102620002146179A0598ABE62D0000002B0000000C
:10263000200000002DE9F041044600251E46174603
:10264000880404D405E039462020B0476D1C641E80
:10265000F9D52846BDE8F0812DE9F0410446002572
:102660001E469046C80301D5302700E02027880485
:1026700004D505E041463846B0476D1C641EF9D5C7
:102680002846BDE8F081000010B504466FF0040054
:10269000FEF720FCE11704EB5171C1F3C701074AB3
:1026A00011701046007800EB4001C1EBC0104FF6EE
:1026B000FF7101EAC0000249088010BD1800002027
:1026C0001A00002070B504464FF4077094FBF0F038
:1026D000C6B24FF4077094FBF0F100FB114085B2D5
:1026E00005E04FF4077000F02FF8701EC6B2002E00
:1026F000F7D115B1284600F027F870BD0146114A00
:1027000012784A434FF0E0235A6100229A611A4638
:10271000126942F001021A6100BF4FF0E022106915
:1027200000F001021AB100F48032002AF5D04FF017
:10273000E022126922F001024FF0E0231A61002228
:102740009A617047180000200146114A12884A43D6
:102750004FF0E0235A6100229A611A46126942F052
:1027600001021A6100BF4FF0E022106900F001027F
:102770001AB100F48032002AF5D04FF0E02212693D
:1027800022F001024FF0E0231A6100229A617047A3
:102790001A00002000BF054A128802F04002002AF9
:1027A000F9D0C2B2014B9A8070470000001001407E
:1027B000FEF7EAF9FEF7E0F8FEF768FFA820FFF75A
:1027C00063FF4FF4E13000F00FF8FEF7A9FEFEF7CB
:1027D00091FF40F6E930FEF793FE012001490870B1
:1027E00000BFFEE71100002010B588B004460121AB
:1027F0000846FEF733FA01211020FEF74FFA0722B0
:1028000009212248FEF76BF907220A211F48FEF72B
:1028100066F94FF4C060069002208DF81C008DF818
:102820001D0000208DF81E0001208DF81F0006A954
:102830001648FEF70CF902940020ADF80C00ADF834
:102840000E00ADF81000ADF814000C20ADF8120029
:1028500002A90F48FEF7E2FD01210D48FEF782FDB7
:10286000012240F225510A48FEF7B2FD25208DF8DD
:10287000040003208DF805008DF8060001208DF876
:10288000070001A8FEF7A2F908B010BD0000024041
:102890000010014000000000000000000000E03FC8
:1028A000000000000000E0BF0000E0FE422EE63F16
:1028B0000000E0FE422EE6BF763C7935EF39EA3D76
:1028C000763C7935EF39EABD3E5555555555C53FEE
:1028D00093BDBE166CC166BF2CDE25AF6A56113F94
:1028E000F16BD2C541BDBBBED0A4BE726937663E96
:1028F000102900080000002034000000A81D000876
:10290000442900083400002034070000B81D0008E6
:102910000000000001020304010203040607080985
:1029200000000000000000000000000000000000A7
:10293000000000000000FA44000000000000000059
:042940000000000093
:040000050800018965
:00000001FF
