:020000040800F2
:1000000098210020D1040008A7020008A9020008D6
:10001000AD020008B1020008B502000800000000AF
:10002000000000000000000000000000B90200080D
:10003000BB02000800000000BD020008BF0200086B
:10004000EB040008EB040008EB040008EB040008D4
:10005000EB040008EB040008EB040008EB040008C4
:10006000EB040008EB040008EB040008EB040008B4
:10007000EB040008EB040008EB040008EB040008A4
:10008000EB040008EB040008EB040008EB04000894
:10009000EB040008EB040008EB040008EB04000884
:1000A000EB040008EB040008EB040008EB04000874
:1000B000EB040008632D0008D1270008EB040008BA
:1000C000EB040008EB040008EB040008EB04000854
:1000D000EB040008FF250008EB040008EB0400080F
:1000E000EB040008EB040008EB040008EB04000834
:1000F000EB040008EB040008EB040008EB04000824
:10010000EB040008EB040008EB040008EB04000813
:10011000EB040008EB040008EB040008EB04000803
:10012000EB040008EB040008EB040008EB040008F3
:10013000EB040008EB040008EB040008EB040008E3
:10014000EB040008EB040008EB040008EB040008D3
:10015000EB040008EB040008EB040008EB040008C3
:10016000EB040008EB040008EB040008EB040008B3
:10017000EB040008EB040008EB040008EB040008A3
:10018000EB040008EB04000800F002F800F061F84E
:100190000AA090E8000C82448344AAF10107DA45E2
:1001A00001D100F056F8AFF2090EBAE80F0013F0D3
:1001B000010F18BFFB1A43F0010318474462000007
:1001C000646200000A444FF0000C10F8013B13F089
:1001D000070408BF10F8014B1D1108BF10F8015BA0
:1001E000641E05D010F8016B641E01F8016BF9D193
:1001F00013F0080F1EBF10F8014BAD1C0C1B09D1EA
:100200006D1E58BF01F801CBFAD505E014F8016B5B
:1002100001F8016B6D1EF9D59142D6D370470000ED
:100220000023002400250026103A28BF78C1FBD8FF
:10023000520728BF30C148BF0B607047642903F0E4
:10024000C983002070471FB504F0C3FC1FBD10B563
:1002500010BD03F099FC1146FFF7F5FF00F008F818
:1002600003F0B7FC03B4FFF7F2FF03BC02F068F938
:100270004FF4A06000F04CF9A82002F0DFF84FF432
:10028000E13002F06AF902F0DDFB03F095FA02F0CA
:10029000F7FB02F0F9F902F067FA02F05CFC02F0F9
:1002A000D6FC00BFFEE7704700BFFEE700BFFEE7D9
:1002B00000BFFEE700BFFEE770477047704770471A
:1002C0000CB50020019000907648006840F4803022
:1002D0007449086000BF7348006800F40030009063
:1002E0000198401C0190009818B90198B0F5A04FF2
:1002F000F1D16C48006800F4003010B1012000908A
:1003000001E0002000900098012846D16548403067
:10031000006840F0805063494031086062480068DE
:1003200040F44040604908605E48083000685D491C
:10033000083108600846006840F40040086008463C
:10034000006840F4A05008605848091F0860081F62
:10035000006840F08070091F086000BF51480068C5
:1003600000F000700028F9D040F205705049086094
:100370004C480830006820F003004A490831086002
:100380000846006840F00200086000BF4548083099
:10039000006800F00C000828F8D10CBD10B54548E5
:1003A000006840F47000434908603E48006840F02F
:1003B00001003C49086000203A490831086039488A
:1003C00000683D490840374908603C48091D0860FD
:1003D000081F006820F48020091F086000203149B0
:1003E0000C310860FFF76CFF4FF000603149803935
:1003F000086010BD70B500200022022300240221F5
:10040000284D08352D6805F00C0020B1042806D0D1
:10041000082834D107E02A4D2A4E356033E02A4DB2
:10042000284E35602FE01F4D2D1D2D68C5F38054DB
:100430001C4D2D1D2D6805F03F0154B1224DB5FB1B
:10044000F1F5184E361D3668C6F3881605FB06F220
:1004500009E01B4DB5FBF1F5124E361D3668C6F3AB
:10046000881605FB06F20F4D2D1D2D68C5F30145BD
:100470006D1C6B00B2FBF3F5124E356003E0104DBE
:10048000104E356000BF00BF064D08352D68C5F31E
:1004900003150E4E705D0B4D2D68C540094E35603D
:1004A00070BD000000380240007000400854400752
:1004B000003C024088ED00E0FFFFF6FE1030002413
:1004C0000024F4002000002000127A002400002004
:1004D0000948804709480047FEE7FEE7FEE7FEE7D8
:1004E000FEE7FEE7FEE7FEE7FEE7FEE70448054914
:1004F000054A064B704700009D030008890100086B
:10050000981B002098210020981D0020981D002095
:1005100032490143324A1160704770B5002100230F
:100520000F22C4781CB32E4C246804F4E064C4F594
:10053000E064C4F30721C1F10404E3B20A41447842
:100540009C40E1B28478144021430C07210E254CD5
:1005500005786155047804F01F050124AC40057846
:100560006D11AD0005F1E025C5F8004109E0047802
:1005700004F01F050124AC401B4D0678761145F8A8
:10058000264070BD194A0A400243154B1B1F1A60D2
:10059000704739B1124A121D12680243104B1B1DDD
:1005A0001A6006E00E4A121D126882430C4B1B1D96
:1005B0001A607047042808D14FF0E021096941F022
:1005C00004014FF0E022116107E04FF0E0210969DA
:1005D00021F004014FF0E022116170470000FA059C
:1005E0000CED00E000E400E080E100E080FFFF1F90
:1005F00010B50121080200F000FE00214FF48070C8
:1006000000F0FBFD10BD30B502460020002350680D
:10061000F84C20400D790C6844EA052420435060D2
:100620009068F54C2040D1E903542C438D682C434D
:100630004D7944EA450420439060D06A20F470006C
:100640000C7D641EE4B2234340EA0350D06230BD07
:1006500000210160017141718160C160016101216E
:10066000017570470021E54A1168E54A1140D0E95B
:1006700000231A4383681A43C3681A431143E14AAB
:10068000C2F8041370470021016041608160C160BD
:10069000704721B1826842F00102826003E0826803
:1006A00022F00102826070470A4600214168D64B61
:1006B00019401143416070474162826270470A46A7
:1006C0000021416821F01F0111434160704738B19A
:1006D000CA49096841F40001CA4AC2F8041306E095
:1006E000C649096821F40001C64AC2F804137047DC
:1006F00038B1C249096841F48001C24AC2F8041302
:1007000006E0BE49096821F48001BE4AC2F804131C
:100710007047F0B504460D4600200021092D11DD7B
:10072000E068A5F10A0606EB4607072606FA07F178
:100730008843A5F10A0606EB460603FA06F10843CC
:10074000E0600CE0206905EB4507072606FA07F193
:10075000884305EB450603FA06F108432061072AA2
:100760000FDA606B561E06EB86071F2606FA07F1A6
:100770008843561E06EB860605FA06F108436063B9
:1007800022E00D2A0FDA206BD61F06EB86071F2604
:1007900006FA07F18843D61F06EB860605FA06F12E
:1007A0000843206310E0E06AA2F10D0606EB86071D
:1007B0001F2606FA07F18843A2F10D0606EB86060E
:1007C00005FA06F10843E062F0BD816841F080411E
:1007D00081607047014600208A6802F080420AB1B9
:1007E000012000E00020704721B1826842F480625D
:1007F000826003E0826822F480628260704721B1E7
:10080000826842F00202826003E0826822F0020203
:100810008260704710B50A4600210023416821F428
:100820006041531E41EA4331416010BD21B142682D
:1008300042F40062426003E0426822F400624260D7
:1008400070470146C86C80B270476C48001D006854
:10085000704721B1826842F48072826003E082684E
:1008600022F480728260704721B1826842F4007283
:10087000826003E0826822F400728260704738B1BF
:100880005E49096841F400515E4AC2F8041306E06B
:100890005A49096821F400515A4AC2F804137047B2
:1008A000F0B504461546002000220026092911DD76
:1008B000E068A1F10A0707EB470C072707FA0CF2DB
:1008C0009043A1F10A0707EB470703FA07F2104329
:1008D000E0600CE0206901EB410C072707FA0CF2FD
:1008E000904301EB410703FA07F210432061A06B2C
:1008F000C0F30156EF1C06F1010CA7EB0C0707EB48
:10090000870C1F2707FA0CF29043EF1C06F1010C2D
:10091000A7EB0C0707EB870701FA07F21043A06368
:10092000F0BD10B50A4600210023816B21F440116F
:10093000531E41EA0351816310BD08B500230093A3
:100940000090009B0B440093009B1A6008BD0A4670
:100950000021816821F470211143816070470A46AB
:100960000021816821F44011114381607047816842
:1009700041F4800181607047014600208A6802F4DA
:1009800080020AB1012000E00020704721B14268D6
:1009900042F48062426003E0426822F48062426076
:1009A000704721B1426842F48052426003E04268DD
:1009B00022F480524260704708B502460020009041
:1009C000009201F12800009B1844009000980068F4
:1009D00080B208BD10B50B460021D9B2012404FA3B
:1009E00001F11AB144680C43446002E044688C434E
:1009F000446010BDFFFEFFFCFDF7FFC00423014073
:100A0000E030FCFF00200140FFFD3FFF02460020D8
:100A100013680B400BB1012000E000207047CA436F
:100A20000260704770B502460020002300240B12BC
:100A3000556801268E4005EA060415681D4015B16B
:100A40000CB1012000E0002070BD00220A12D34347
:100A50000360704710B504469848844208D10121CC
:100A6000084600F086FB0021012000F082FB76E0C2
:100A70009348844208D10121022000F07AFB002132
:100A8000022000F076FB6AE08E48844208D1012102
:100A9000042000F06EFB0021042000F06AFB5EE001
:100AA0008948844208D10121082000F062FB00211E
:100AB000082000F05EFB52E08448844208D1012106
:100AC000102000F056FB0021102000F052FB46E001
:100AD0007F48844208D10121202000F04AFB0021F8
:100AE000202000F046FB3AE07A48844208D10121F8
:100AF000402000F03EFB0021402000F03AFB2EE0B9
:100B00007548844208D10121802000F032FB002189
:100B1000802000F02EFB22E07048844208D10121A1
:100B2000801500F026FB0021A01500F022FB16E046
:100B30006B48844208D10121401500F01AFB0021C6
:100B4000601500F016FB0AE06648844207D10121D7
:100B5000001500F00EFB0021201500F00AFB10BD6F
:100B6000F0B50A4600210023002400BF3DE0012526
:100B700005FA01F3156805EA03049C4234D10568BF
:100B80004F000326BE40B543056015794E00B540C1
:100B90000668354305601579012D02D01579022DBF
:100BA00016D185684F000326BE40B5438560557950
:100BB0004E00B540866835438560456801268E4005
:100BC000B5434560456896798E40B6B23543456079
:100BD000C5684F000326BE40B543C560D5794E00B9
:100BE000B540C6683543C560491C1029BFD3F0BD68
:100BF0004FF6FF7101600021017141718171C17176
:100C0000704708B54FF480320092009A0A43009270
:100C1000009AC261C161009AC261C2690092C26950
:100C2000009208BD0246002013690B400BB1012061
:100C300000E0002070470146086980B27047024614
:100C4000002053690B400BB1012000E000207047E9
:100C50000146486980B270470183704741837047FD
:100C60000AB1018300E041837047416170474269E6
:100C70004A4042617047F0B5002300244D07ED0E55
:100C800002FA05F3CE1000F1200555F826504E0764
:100C9000F70E0F26BE40B543CF1000F1200646F8F0
:100CA0002750CE1000F1200555F8265045EA0304E0
:100CB000CE1000F1200545F82640F0BD00000240AE
:100CC0000004024000080240000C024000100240F4
:100CD0000014024000180240001C024000200240A4
:100CE0000024024000280240F948006840F001005A
:100CF000F74908600020F64908310860F4480068A8
:100D0000F4490840F2490860F348091D0860F348B7
:100D1000EF4984310860F0481038091D0860EC483C
:100D2000006820F48020EA4908600020E8490C317E
:100D30000860E7498C31086070470021E44A921C42
:100D4000117011460870704710B50146002200234B
:100D500000204A11012A02D1DD4C236808E0022A52
:100D600003D1DB4C7034236802E0D94C743423681F
:100D700001F01F02012494401C400CB1012000E04E
:100D8000002010BD38B5002000900024002500BFD1
:100D90003120FFF7D9FF05460098401C00900098CD
:100DA000B0F5A04F01D0002DF2D03120FFF7CCFFDD
:100DB00008B1012400E00024204638BD014600208F
:100DC000C34A106820F0F80040EAC1001060704784
:100DD000C349086070470021BD4A7032117011701C
:100DE000012802D004280AD104E00121B84A703257
:100DF000117005E00521B64A7032117000E000BFA5
:100E000000BF7047B7490860704770B5049C41EA5D
:100E100082150126C6EB530645EA0645054345EA19
:100E20000465AB4E361D356070BDAD490866704730
:100E3000820142EA0172A64B84331A607047A849C6
:100E40008866704710B5830143EA016343EA027381
:100E50009F4C8834236010BDA14908677047A049A2
:100E6000C864704702460020994B0833186820F088
:100E7000EC6042EA01031843954B08331860704751
:100E800002460020924B0833186820F0784042EA6E
:100E9000010318438E4B0833186070470146002049
:100EA0008B4A0832106820F0030008431060704736
:100EB00087480830006800F00C00704701460020A9
:100EC000834A0832106820F0F00008431060704731
:100ED000014600207E4A0832106820F4E0500843A2
:100EE0001060704701460020794A0832106820F4EB
:100EF000604040EAC10010607047F0B50021002258
:100F00000024022500260223714F08373F6807F0AE
:100F10000C0121B1042905D0082937D105E0724F11
:100F2000076036E0714F076033E0694F3F1D3F684F
:100F3000C7F38056664F3F1D3F6807F03F036EB111
:100F40006A4FB7FBF3F7DFF888C10CF1040CDCF84B
:100F500000C0CCF3881C07FB0CF40CE0624FB7FB1D
:100F6000F3F7DFF86CC10CF1040CDCF800C0CCF333
:100F7000881C07FB0CF4564F3F1D3F68C7F3014721
:100F80007F1C7D00B4FBF5F7076002E0564F076059
:100F900000BF00BF4E4F08373F6807F0F001090956
:100FA000534F7A5C0768D7404760494F08373F681E
:100FB00007F4E051890A4E4F7A5C4768D740876052
:100FC000434F08373F6807F46041490B484F7A5C4C
:100FD0004768D740C760F0BD002100F44072B2F509
:100FE000407F0AD13A4A0832116821F4F811414A87
:100FF00002401143364A08321160354A7032126895
:10100000C0F30B031A43324B70331A6070473549F3
:1010100044390860704733494039086070473649A1
:101020000860704701460020294A8C32106820F081
:101030001F004A1E1043264A8C321060704701463A
:101040000020234A8C32106820F4F8504A1E40EAEF
:1010500002201F4A8C3210607047014600201C4A53
:101060008C32106820F4401008431060704701462D
:101070000020174A8C32106820F4400008431060AA
:10108000704701460020124A8C32106820F440302C
:1010900008431060704719490860704739B10C4A1D
:1010A0003032126802430A4B30331A6006E0084AB5
:1010B000303212688243064B30331A607047F9B100
:1010C000034A343212680243014B34331A601CE085
:1010D00000380240FFFFF6EA103000240030002004
:1010E00000004742800E47420024F40000127A00BC
:1010F00034000020FFFCFF0F5C014742E011474233
:101100008F4A126882438E4B1A60704739B18C4AFD
:10111000121D126802438A4B1B1D1A6006E0884AA2
:10112000121D12688243864B1B1D1A60704739B12D
:10113000834A0C3212680243814B0C331A6006E07A
:101140007F4A0C32126882437D4B0C331A60704721
:1011500039B17B4A103212680243794B10331A605E
:1011600006E0774A103212688243754B10331A60DA
:10117000704739B1724A243A12680243704B243BDB
:101180001A6006E06E4A243A126882436C4B243B94
:101190001A60704739B16A4A203A12680243684BB4
:1011A000203B1A6006E0664A203A12688243644B8C
:1011B000203B1A60704739B1614A1C3A12680243F9
:1011C0005F4B1C3B1A6006E05D4A1C3A1268824382
:1011D0005B4B1C3B1A60704739B1594A143A12688C
:1011E0000243574B143B1A6006E0554A143A126802
:1011F0008243534B143B1A60704739B1504A103A3E
:10120000126802434E4B103B1A6006E04C4A103AFB
:10121000126882434A4B103B1A60704739B1484A02
:101220001C3212680243464B1C331A6006E0444AE3
:101230001C3212688243424B1C331A60704739B12A
:101240003F4A2032126802433D4B20331A6006E0C9
:101250003B4A203212688243394B20331A60704770
:1012600039B1374A243212680243354B24331A60AD
:1012700006E0334A243212688243314B24331A6029
:10128000704739B12E4A2C32126802432C4B2C3352
:101290001A6006E02A4A2C3212688243284B2C330B
:1012A0001A60704739B1264A303212680243244B23
:1012B00030331A6006E0224A303212688243204BF3
:1012C00030331A607047012808D11D493C31096844
:1012D00041F008011A4A3C32116007E018493C31DC
:1012E000096821F00801164A3C321160704739B193
:1012F000134A273A12780243114B273B1A7006E033
:101300000F4A273A127882430D4B273B1A707047D9
:101310000B484030006840F0807009494031086057
:10132000704701460020064A283A12680A400AB16E
:10133000012000E0002070470149263908707047FD
:101340003438024010B50446FE48844208D10121D9
:101350000846FFF752FF00210120FFF74EFF9DE0F6
:10136000B4F1804F08D101210846FFF735FF002175
:101370000120FFF731FF91E0F348844208D10121B9
:101380000220FFF729FF00210220FFF725FF85E05B
:10139000EE48844208D101210420FFF71DFF0021FF
:1013A0000420FFF719FF79E0E948844208D10121C0
:1013B0000820FFF711FF00210820FFF70DFF6DE067
:1013C000E448844208D101211020FFF705FF0021E5
:1013D0001020FFF701FF61E0DF48844208D10121BE
:1013E0002020FFF7F9FE00212020FFF7F5FE55E051
:1013F000DA48844208D101210220FFF7FEFE0021D5
:101400000220FFF7FAFE49E0D548844209D10121C4
:101410000804FFF7F2FE00214FF48030FFF7EDFEE5
:101420003CE0D048844209D101214804FFF7E5FEA1
:1014300000214FF40030FFF7E0FE2FE0CA4884425D
:1014400009D101218804FFF7D8FE00214FF4802044
:10145000FFF7D3FE22E0C548844208D10121402095
:10146000FFF7BAFE00214020FFF7B6FE16E0C048A5
:10147000844208D101218020FFF7AEFE00218020A8
:10148000FFF7AAFE0AE0BB48844207D1012180157C
:10149000FFF7A2FE0021A015FFF79EFE10BD00225F
:1014A0000288A84B98420ED0AC4B98420BD0B0F1BA
:1014B000804F08D0A44B984205D0A44B984202D04C
:1014C000A34B984204D14FF68F731A404B881A43AE
:1014D000A04B984207D0A04B984204D04FF6FF4350
:1014E0001A400B891A4302804B68C3620B8803853C
:1014F000944B984202D0994B984201D18B7A038643
:101500000123838270474FF0FF3141600021018049
:1015100001814180817270470185828270470A464D
:10152000002101884FF68F731940114301807047E5
:1015300041627047C16270470146486A7047014680
:10154000088D704721B1028842F00202028004E057
:1015500002884FF6FD731A400280704721B102885D
:1015600042F00402028004E002884FF6FB731A4046
:101570000280704721B1028842F08002028004E0BC
:1015800002884FF67F731A400280704702884FF638
:10159000F7731A40028002880A430280704702886B
:1015A0004FF6FF431A40028002880A4302807047C8
:1015B00021B1028842F00102028004E002884FF665
:1015C000FE731A400280704770B500240022002389
:1015D000058C4FF6FE7635400584028C8388048B9B
:1015E0004FF68F752C40B51E2C400D882C43751E70
:1015F0002A408D892A434D882A43524DA84202D061
:10160000564DA84213D14FF6F7752A40CD892A438B
:101610004FF6FB752A408D882A434FF6FF652B4015
:101620004FF6FF552B400D8A2B434D8A2B43838069
:1016300004838D684563028470BD70B50024002268
:101640000023058C4FF6EF7635400584028C8388A5
:10165000048B48F6FF752C404FF6FF452C400D8853
:101660004FF6FF7606EA05252C434FF6DF752A4034
:101670008D8906EA05152A434D8806EA05152A4391
:10168000304DA84202D0354DA8421DD14FF67F758E
:101690002A40CD894FF6FF7606EA05152A434FF614
:1016A000BF752A408D8806EA05152A434FF6FF3597
:1016B0002B404FF2FF752B400D8A06EA85052B4320
:1016C0004D8A06EA85052B43838004838D688563F4
:1016D000028470BD70B5002400220023058C4FF6F3
:1016E000FF6635400584028C8388848B4FF68F75A6
:1016F0002C404FF6FC752C400D882C434FF6FF55BF
:101700002A408D894FF6FF7606EA05252A434D8843
:1017100006EA05252A430B4DA84202D00F4DA842E8
:1017200038D14FF2FF752A40CD894FF6FF7606EA91
:1017300005252A434FF6FF352A408D8806EA052500
:101740002A4319E000000140000400400008004066
:10175000000C004000100040001400400004014054
:101760000040014000440140004801400018004092
:10177000001C0040002000404EF6FF752B404DF647
:10178000FF752B400D8A06EA05152B434D8A06EAA4
:1017900005152B43838084838D68C563028470BDE7
:1017A00070B5002200230024058C4EF6FF763540EC
:1017B0000584038C8488828B48F6FF752A404FF697
:1017C000FF452A400D884FF6FF7606EA05252A4395
:1017D0004DF6FF752B408D8906EA05352B434D8864
:1017E00006EA05352B43FE4DA84202D0FD4DA84226
:1017F00008D14BF6FF752C400D8A4FF6FF7606EAAE
:1018000085152C43848082838D680564038470BDB4
:10181000002101804180818081608181C1810182BC
:101820004182704770B503460020002418461830E6
:1018300001258D40ACB21D8CA5431D8409B108293A
:101840000AD100EB610005684FF68F7635400560E0
:101850000568154305600FE00D1FC5F34E052844CC
:10186000056848F6FF763540056005684FF6FF7657
:1018700006EA02263543056070BD41637047816307
:101880007047C1637047016470470A460021018BAD
:101890004FF68F7319401143018370470A460021A8
:1018A000018B48F6FF7319404FF6FF7303EA0223DA
:1018B0001943018370470A460021818B4FF68F73CD
:1018C00019401143818370470A460021818B48F6F5
:1018D000FF7319404FF6FF7303EA02231943818314
:1018E00070470A460021018B4FF6F77319401143E8
:1018F000018370470A460021018B4FF2FF731940A4
:101900004FF6FF7303EA02231943018370470A4627
:101910000021818B4FF6F773194011438183704783
:101920000A460021818B4FF2FF7319404FF6FF7377
:1019300003EA02231943818370470A460021018B81
:101940004FF6FB7319401143018370470A4600218B
:10195000018B4FF6FF3319404FF6FF7303EA022362
:101960001943018370470A460021818B4FF6FB73B0
:1019700019401143818370470A460021818B4FF63D
:10198000FF3319404FF6FF7303EA022319438183A3
:1019900070470A460021018B4FF67F7319401143AF
:1019A000018370470A460021018BC1F30E014FF6F7
:1019B000FF7303EA02231943018370470A4600219B
:1019C000818B4FF67F7319401143818370470A461C
:1019D0000021818BC1F30E014FF6FF7303EA02234E
:1019E0001943818370470A460021018C4FF6FD732D
:1019F00019401143018470470A460021018C4FF6BB
:101A0000F77319401143018470470A460021018C85
:101A10004FF6DF7319404FF6FF7303EA02131943C1
:101A2000018470470A460021018C4FF67F731940EC
:101A30004FF6FF7303EA02131943018470470A4605
:101A40000021018C4FF6FF5319404FF6FF7303EA54
:101A500002231943018470470A460021018C4FF28A
:101A6000FF7319404FF6FF7303EA02231943018401
:101A700070470A460021018C4DF6FF7319404FF65E
:101A8000FF7303EA023319430184704730B5002322
:101A900001248C40A3B2048C9C430484048C02FA7D
:101AA00001F5ADB22C43048430BD30B500230424CD
:101AB0008C40A3B2048C9C430484048C02FA01F58C
:101AC000ADB22C43048430BD828B4FF2FF331A40F9
:101AD0008283828B4FF6FF7303EA01231A438283CA
:101AE0007047F0B50C461546002100220026078CF1
:101AF0004EF6FF7C07EA0C070784818B028C4FF6B9
:101B0000FF7707EA043640F6FF4739404FF6FF7784
:101B100007EA052739434FF6FF7707EA03373943CA
:101B200045F6FF773A4046F480573A438183028472
:101B3000F0BD828B4FF6F3731A408283828B0A4387
:101B400082837047F0B50C4615460021002200261E
:101B5000078C4FF6FF6C07EA0C070784818B028C19
:101B60004FF6FF7707EA04264FF60C7739404FF619
:101B7000FF7707EA03172F4339434FF2FF573A40E5
:101B800046F480773A4381830284F0BD028B4FF2A2
:101B9000FF331A400283028B4FF6FF7303EA0123DF
:101BA0001A4302837047F0B50C4615460021002207
:101BB0000026078C4FF6EF7C07EA0C070784018BA1
:101BC000028C4FF6FF7707EA041640F6FF473940CC
:101BD0004FF6FF7707EA033739434FF6FF7703E005
:101BE000000001400004014007EA052739434FF691
:101BF0005F773A4046F010073A4301830284F0BD14
:101C0000028B4FF6F3731A400283028B0A4302835E
:101C10007047F0B50C46154600210022068C4FF6A1
:101C2000FE773E400684018B028C4FF60C763140E5
:101C30007E1C06EA03162E4331434FF6F5763240FA
:101C400044F00106324301830284F0BD70B50546BD
:101C50000C46208850B92389A28861882846FFF75E
:101C6000D8FFE1882846FFF7CBFF25E0208804282D
:101C70000AD12389A28861882846FFF794FFE1886A
:101C80002846FFF783FF17E0208808280AD1238918
:101C9000A28861882846FFF755FFE1882846FFF7AC
:101CA00048FF09E02389A28861882846FFF719FFC9
:101CB000E1882846FFF708FF70BD002101804180C0
:101CC000012181800021C180018170472DE9F0410F
:101CD00005460C4600260127608808B9022600E068
:101CE0000026A088012801D1022700E001272088D2
:101CF000A0B92389A28861882846FFF78AFFE18876
:101D00002846FFF77DFF23893A4631462846FFF7EC
:101D10004AFFE1882846FFF739FF13E02389A288AC
:101D200061882846FFF73FFFE1882846FFF72EFF2E
:101D300023893A4631462846FFF76BFFE18828465B
:101D4000FFF75EFFBDE8F0810146486B7047014632
:101D5000886B70470146C86B70470146086C704736
:101D60000A884B881A438B881A43CB881A430B89FD
:101D70001A434B891A438B891A43A0F844207047B1
:101D80000021018041808180C18001814181818168
:101D9000704731B1B0F8442042F40042A0F844202A
:101DA00005E0B0F84420C2F30E02A0F844207047CA
:101DB00021B1828842F00402828004E082884FF6DA
:101DC000FB731A408280704721B1828842F0010281
:101DD000828004E082884FF6FE731A40828070474A
:101DE0001AB183890B43838102E083898B4383810A
:101DF00070478182704702460020138A0B400BB166
:101E0000012000E000207047CA430282704730B5CD
:101E10000246002000230024158A05EA0103958963
:101E200005EA010413B10CB1012000E0002030BD2F
:101E3000CA430282704741EA0203A0F84830704763
:101E40001AB183890B43838102E083898B438381A9
:101E5000704721B1828842F00802828004E08288C3
:101E60004FF6F7731A408280704701894FF6F87277
:101E70001140018170470A46002101894FF68F7396
:101E8000194011430181704730B504460D4629467B
:101E90002046FFF7F0FF208940F00700208130BD89
:101EA0002DE9F04104460D4616461F46602D06D129
:101EB0003B46012231462046FFF775FE05E03B46D2
:101EC000012231462046FFF7A4FE29462046FFF7AF
:101ED000D2FF208940F007002081BDE8F08130B5B5
:101EE0000C4600210189C9B24FF6FF7505EA0325AA
:101EF000154325432943018130BD2DE9F0410546B5
:101F00000E4617469846002443463A463146284630
:101F1000FFF7E5FF2C894FF6F870044044F0070402
:101F20004FF68F70044044F070042C81BDE8F081BE
:101F3000F0B504460D4616461F463B463246294636
:101F40002046FFF7CCFF208940F480402081F0BD7F
:101F500082884FF68F731A40828082880A4382807B
:101F6000704702894FF6F8731A40028102890A43CA
:101F70000281704702894FF67F731A4002810289FD
:101F80000A4302817047F0B50C4615461E460021F3
:101F9000002200230189028B038C4FF6F877394029
:101FA00021434FF6FC473A4040F201173A434FF6BF
:101FB000DD773B404FF6FF7707EA06172F433B4399
:101FC000018102830384F0BD21B1828842F0800246
:101FD000828004E082884FF67F731A4082807047C7
:101FE000A0F850107047000010B50446FA4884422B
:101FF00008D101211020FFF700F900211020FFF780
:10200000FCF857E0F548844209D101214804FFF764
:10201000E3F800214FF40030FFF7DEF84AE0F04823
:10202000844209D101218804FFF7D6F800214FF43A
:102030008020FFF7D1F83DE0EA48844209D1012130
:10204000C804FFF7C9F800214FF40020FFF7C4F8D7
:1020500030E0E548844209D101210805FFF7BCF8CA
:1020600000214FF48010FFF7B7F823E0DF488442E7
:1020700008D101212020FFF7C0F800212020FFF720
:10208000BCF817E0DA48844209D101218807FFF73C
:10209000A3F800214FF08040FFF79EF80AE0D548F2
:1020A000844207D101214005FFF796F80021600521
:1020B000FFF792F810BD2DE9FF4705460E460024B4
:1020C000A14600BFA046B08900B100BF2C8A24F40D
:1020D0004054F08804432C82AC8941F20C60844364
:1020E000B08831890843718908430443AC81AC8AC4
:1020F00024F44074B0890443AC826846FEF7FDFEC8
:10210000B548854202D0B948854202D1DDF80C902D
:1021100001E0DDF80890A88900F4004040B109EB27
:10212000C90000EB091031684900B0FBF1F707E086
:1021300009EBC90000EB091031688900B0FBF1F729
:102140006420B7FBF0F004012009642101FB107842
:10215000A88900F4004040B1322000EBC800B0FB79
:10216000F1F000F00700044308E0322000EB081013
:102170006421B0FBF1F000F00F0004432C81BDE8B6
:10218000FF874FF41651016000218180C1800181D9
:102190000C21418100218181704710B50246002049
:1021A000108A20F470600B884C8823438C8823436A
:1021B000CC8823431843108210BD00210180418048
:1021C0008180C180704721B1828942F400528281AE
:1021D00004E082894DF6FF731A4082817047028BBA
:1021E00002F47F420283028B0A430283704721B1CB
:1021F000828942F40042828103E08289C2F30E02A6
:102200008281704721B1828A42F40062828204E0B6
:10221000828A4FF2FF731A4082827047C1F308022C
:102220008280704701468888C0F308007047028AA0
:102230004FF6F0731A400282028A0A430282704704
:1022400021B1828942F00202828104E082894FF644
:10225000FD731A408281704782894FF2FF731A40E2
:10226000828182890A4382817047028A4FF6DF7336
:102270001A400282028A0A430282704721B1028A0E
:1022800042F48042028204E0028A4BF6FF731A4055
:1022900002827047818941F001018181704721B13B
:1022A000828A42F00802828204E0828A4FF6F77343
:1022B0001A4082827047028BD2B20283028B42EABA
:1022C00001220283704721B1828A42F02002828279
:1022D00004E0828A4FF6DF731A408282704721B190
:1022E000828A42F01002828204E0828A4FF6EF7303
:1022F0001A4082827047828A4FF6FB731A408282AC
:10230000828A0A438282704721B1828A42F00202A5
:10231000828204E0828A4FF6FD731A4082827047FF
:102320001AB1838A0B43838202E0838A8B438382C0
:102330007047F0B50346002400260025002040F633
:102340006A17B94200D100BF1846C1F3421401F028
:102350001F06012707FA06F5012C01D10C3004E015
:10236000022C01D1103000E014301AB107682F435D
:10237000076002E00768AF430760F0BD0246002037
:10238000B1F5007F00D100BF13880B400BB10120D5
:1023900000E00020704701F40072B2F5007F00D128
:1023A00000BFCA430280704770B502460024002374
:1023B0000025002040F66A16B14200D100BFC1F3EB
:1023C000421501F01F03012606FA03F3012D13D174
:1023D0009689334017E0000000100140004400409F
:1023E00000480040004C00400050004000140140F4
:1023F00000780040007C0040022D02D1168A334054
:1024000001E0968A33400C12012606FA04F416887D
:10241000344013B10CB1012000E0002070BD10B5B4
:102420000022002340F66A14A14200D100BF0A1224
:1024300001249440A3B2DC43048010BD10B50446CF
:102440006FF00400FEF7B6F8E11704EB5171C1F329
:10245000C701394A11701046007800EB4001C1EB0A
:10246000C0104FF6FF7101EAC0003449088010BD6A
:102470000146314A12784A434FF0E0235A61002264
:102480009A611A46126942F001021A6100BF4FF0C8
:10249000E022106900F001021AB100F48032002A33
:1024A000F5D04FF0E022126922F001024FF0E02354
:1024B0001A6100229A6170470146204A12884A43F5
:1024C0004FF0E0235A6100229A611A46126942F0E5
:1024D00001021A6100BF4FF0E022106900F0010212
:1024E0001AB100F48032002AF5D04FF0E0221269D0
:1024F00022F001024FF0E0231A6100229A61704736
:1025000070B504464FF4077094FBF0F0C6B24FF478
:10251000077094FBF0F100FB114085B205E04FF429
:102520000770FFF7C9FF701EC6B2002EF7D115B1B4
:102530002846FFF7C1FF70BD440000204600002080
:1025400000BF704700BF4C4A128802F04002002AC8
:10255000F9D0C2B2484B9A80704710B588B0044693
:1025600001210846FEF79AFD01211020FEF7F0FD3B
:10257000072209214148FEF77EFB07220A213F4836
:10258000FEF779FB4FF4C060069002208DF81C0026
:102590008DF81D0000208DF81E0001208DF81F0011
:1025A00006A93648FEF7DCFA02940020ADF80C00CC
:1025B000ADF80E00ADF81000ADF814000C20ADF829
:1025C000120002A92C48FFF776FD01212A48FFF7E7
:1025D000FAFD012240F225512748FFF7AAFE2520E7
:1025E0008DF8040003208DF805008DF80600012009
:1025F0008DF8070001A8FDF790FF08B010BD10B5D9
:1026000040F225511C48FFF7CFFE10B31A48FFF7E0
:1026100009FEC4B21A48008800F40040C8B918483E
:10262000008800F4804060B10A2C03D000201449D7
:10263000088020E01248008840F4004010490880DB
:1026400019E00D2C06D10E48008840F480400C495A
:10265000088010E00A480088C0F30D0009490C54B6
:1026600007480088401C0649088008460088C7289B
:1026700001DD0020088010BD001001400000024074
:102680004C000020B414002000B58DB00121084694
:10269000FEF704FD01210802FEF75AFD20200B90F1
:1026A00003208DF8300000208DF833000BA92C4852
:1026B000FEF756FA01210802FEF79FFD00214FF4B4
:1026C0008070FEF79AFD002007900A9009904FF461
:1026D0008030089007A8FDF7C5FF002001908DF815
:1026E00008008DF809000390059001208DF818006E
:1026F00001A91C48FDF787FF01211A48FDF7C9FF12
:102700000DB000BD10B5044607230122214615482F
:10271000FDF7FFFF1348FEF758F800BF02211148EC
:10272000FEF774F90028F9D00E48FEF78AF810BDBC
:102730002DE9F04107460C460025002608E0384602
:10274000FFF7E0FF05440520FFF7DAFE701CC6B274
:10275000A642F4DBB5FBF4F080B2BDE8F0810000E6
:1027600000000240002001401FB501210420FEF7B7
:10277000DEFC40F24730ADF80400642002900020F7
:10278000ADF80C00ADF8060001A99B48FEF787FEE6
:102790004FF4A060FDF7BCFE1E208DF80000032062
:1027A0008DF8010001208DF802008DF803006846C5
:1027B000FDF7B3FE01219048FFF726FB01221146E9
:1027C0008D48FFF70DFB01218B48FEF7F1FE1FBD81
:1027D00010B52DED0A8B01218748FFF718FB002863
:1027E0007ED001218448FFF723FB844890ED000A46
:1027F000F7EE000A30EE200A80ED000A14210520D1
:10280000FFF796FF7E4908800846008800EE100A10
:10281000B8EE400A10EE100A02F06AF941EC1A0B09
:102820009FED780B53EC102B01F038FF41EC190BA6
:102830009FED760B53EC102B02F070F841EC180B67
:1028400001F03EFC734908606C4890ED000AF7EE19
:10285000000AB4EE600AF1EE10FA3DD108460068B5
:1028600002F046F941EC190B9FED6B0B53EC102B6A
:1028700002F048F841EC180B01F022FC68490860AE
:10288000644890ED000AF0EE000A30EE600A6548F8
:1028900080ED000A084690ED000AF0EE000A20EEF6
:1028A000200A10EE101A084602F022F941EC190B2A
:1028B00053EC192B9FED5C0B51EC100B01F0E6FC77
:1028C00041EC180B01F0FCFB59490860084690EDFB
:1028D000000A584880ED000A4E4890ED000A00E0DA
:1028E00086E05048D0ED000A30EE600AB5EEC00A2E
:1028F000F1EE10FA39DB474890ED000A4948D0ED77
:10290000000A30EE600A10EE101A084602F0F0F8E5
:1029100041EC1A0B424890ED000AF0EE000A20EE5E
:10292000200A10EE101A084602F0E2F841EC1C0BE7
:1029300053EC1C2B9FED3C0B51EC100B01F0A6FC53
:1029400041EC1B0B53EC1A2B01F0A8FE41EC190BC8
:102950009FED390B53EC102B01F098FC41EC180B58
:1029600001F01CFE3649086038E02E4890ED000A60
:102970002848D0ED000A30EE600A10EE101A084622
:1029800002F0B6F841EC1A0B254890ED000AF0EE83
:10299000000A20EE200A10EE101A084602F0A8F8ED
:1029A00041EC1C0B53EC1C2B9FED1F0B51EC100B3F
:1029B00001F06CFC41EC1B0B53EC1A2B01F06EFE8A
:1029C00041EC190B9FED1C0B53EC102B01F05EFC3E
:1029D00041EC180B01F0E2FD194908600D4890ED3B
:1029E000000A104880ED000A1548006800F06BF9F5
:1029F000BDEC0A8B10BD0000000800406400002000
:102A00000C000020000000000080B63F3333333359
:102A100033333A40000000200000000000805640A0
:102A20000800002004000020000000000080664034
:102A30005C0000206000002079E9263108ACAC3F42
:102A4000580000201CB501210846FEF727FBC020D6
:102A5000009001208DF8040000208DF8060003206E
:102A60008DF8050001208DF8070069460348FEF740
:102A700077F8C0210148FEF7EFF81CBD00000240C6
:102A80001CB501210220FEF752FB01210846FEF78A
:102A900005FB02220621FE48FEF7EDF840200090DB
:102AA00002208DF804008DF8050000208DF8060046
:102AB00001208DF807006946F548FEF751F880209F
:102AC000009001208DF8040002208DF80500002000
:102AD0008DF8060001208DF807006946EC48FEF7E6
:102AE0003FF81CBD00B589B02920ADF818004FF69D
:102AF000FF7007900020ADF82000ADF81A0006A97D
:102B0000E448FEF7CCFC3020ADF804004FF4FA6046
:102B100003900120ADF806000220ADF8100001A9D5
:102B2000DC48FEF751FD0021DA48FEF7DAFE4FF4EB
:102B3000A060FDF7EDFC1D208DF8000002208DF84F
:102B4000010001208DF802008DF803006846FDF7B2
:102B5000E4FC09B000BD70B52DED088B00249FED9D
:102B6000CE0ACE4880ED000A9FEDCD0A80ED010A25
:102B70009FEDCC0A80ED020AB1EE000A80ED030A57
:102B800090ED000AF0EE000A80EE201AB0EE418AC5
:102B900090ED020AD0ED010A30EE600AB0EE409AE4
:102BA00000BF47E0BD4890ED030AF1EE400A00EE99
:102BB000104AB8EE400A30EE480A20EE800AC0EE15
:102BC000080A10EE905A284601F092FF41EC1B0BC8
:102BD000B0EE4B0AF0EE6B0A01F01EF8B0EE40AA20
:102BE000F0EE60AA51EC1A0B01F06AFA00EE100A3E
:102BF000F7EE000A70EE208A89EE280AA748D0ED89
:102C0000010A30EE200AA84800EB840080ED000A9B
:102C1000A54800EB840090ED000ADFEDA40A80EEE9
:102C2000801ABCEEC10A10EE100AA14921F8140066
:102C3000601CC4B2994890ED000ABCEEC00A10EEC8
:102C4000100AC0B2A042ADDCBDEC088B70BD10B55F
:102C500000209849086001209749087080218C481D
:102C6000FDF7FCFF7D20FFF703FCFFF73BFF022190
:102C70008848FFF7DDF8012202218648FFF7B0F807
:102C800001218448FEF794FC10BD10B5002089494D
:102C9000086001208849087080217D48FDF7DCFF2D
:102CA0007D20FFF7E5FBFFF71DFF02217948FFF7C5
:102CB000BFF8012202217748FFF792F801217548F9
:102CC000FEF776FC10BD10B504467C480068401C39
:102CD0007A4908603C2C16D900207949087075495A
:102CE00008600220744908707648046080216848B2
:102CF000FDF7B4FF7D20FFF7BBFB7048016872A0B1
:102D000000F028FE0AE06E480078401C6C4908700C
:102D100008460078032801D16749087010BD10B536
:102D20000446002063490860022063490870654832
:102D3000046080215648FDF78FFF7D20FFF798FB48
:102D400010BD10B500215348FEF732FC00220221CD
:102D50005048FFF745F8002056490860564908706A
:102D600010BD10B52DED028B002008EE100A0221D7
:102D70004848FFF74CF8002830D002214548FFF7BB
:102D800057F84448FEF7E0FF80B208EE100A5048BA
:102D90000078401C4E4908700846007802281DD172
:102DA000002008704448007801282FD1414800686D
:102DB000401C404908600846006832280FD2096864
:102DC000491E3B4A32F8110000EBD071491000EE69
:102DD000101AB8EEC00A3F4981ED000AD0E035492B
:102DE0000968491E324A32F8110000EBD0714910CF
:102DF00000EE101AB8EEC00A364981ED000A022032
:102E00002D49087000202B490860B9E02A48007855
:102E1000022865D127480068401C264908602748D9
:102E20000068FA280DDC2249B1F8620000EBD0718D
:102E3000491000EE101AB8EEC00A264981ED000ACA
:102E40009EE01E480068FA2812DD1C480068B0F5B4
:102E5000B97F0DDC1649B1F8600000EBD071491064
:102E600000EE101AB8EEC00A1A4981ED000A87E098
:102E700012480068B0F5B97F31DD0D49B1F85E0048
:102E800000EBD071491000EE101AB8EEC00A23E032
:102E90000000024000040040000048427C15002071
:102EA0000000FA43000048458C1500200024F44936
:102EB00054160020700000207400002068000020DC
:102EC0006D0000201800002025640D0A000000009D
:102ED0007500002078000020324981ED000A4FE0A3
:102EE00031480078032828D130480068401C2F4919
:102EF000086008460068332810D20968C1F1320121
:102F00002B4A32F8110000EBD071491000EE101A74
:102F1000B8EEC00A234981ED000A31E00022022107
:102F20002448FEF75DFF00212248FEF741FB002008
:102F30001E4908601C49087022E01B4800780428DC
:102F40001ED11A480068401C1849086008460068ED
:102F500019490968884205D29FED180A114880ED89
:102F6000000A0DE0002202211248FEF739FF00217D
:102F70001048FEF71DFB00200C4908600A49087044
:102F8000B8EE480A0748D0ED000A30EE200ABCEE41
:102F9000C00A10EE100A81B20648FEF76EFCBDECC6
:102FA000028B10BD7800002074000020700000200B
:102FB0005416002000040040180000200000FA44CD
:102FC00000BF011EA0F10100FBD1704710B54FF406
:102FD0008051FE48FDF740FE0120FFF7F1FF202160
:102FE000FB48FDF73BFE0120FFF7EAFF2021F848F0
:102FF000FDF732FE0120FFF7E3FF10BD10B54FF4DF
:103000008051F248FDF728FE0120FFF7D9FF4FF469
:103010008051EE48FDF722FE0120FFF7D1FF10BDE1
:1030200070B5044600252DE04FF48051E748FDF7C8
:1030300015FE0120FFF7C4FF04F0800038B1202105
:10304000E348FDF709FE0120FFF7BAFF06E0202163
:10305000DF48FDF703FE0120FFF7B2FF4FF4805178
:10306000DA48FDF7F9FD0120FFF7AAFF4FF4805180
:10307000D648FDF7F3FD0120FFF7A2FF6006040E1E
:10308000681CC5B2082DCFDB70BD10B52021D0481B
:10309000FDF7E2FD0120FFF793FF4FF48051CB488D
:1030A000FDF7DAFD0120FFF78BFF2021C848FDF76F
:1030B000D5FD0120FFF784FF4FF48051C348FDF791
:1030C000CDFD0120FFF77CFF10BD70B505460C4615
:1030D000FFF7DBFF7820FFF7A3FFFFF78FFF1CB19F
:1030E0004020FFF79DFF02E00020FFF799FFFFF768
:1030F00085FF2846FFF794FFFFF780FFFFF766FF85
:1031000070BD10B504461CB90021A620FFF7DDFFF5
:10311000012C03D10021A720FFF7D7FF10BD10B568
:1031200004463CB90021C820FFF7CFFF0021A120B1
:10313000FFF7CBFF012C07D10021C020FFF7C5FF0F
:103140000021A020FFF7C1FF10BD10B500218D2088
:10315000FFF7BBFF00211420FFF7B7FF0021AF20CE
:10316000FFF7B3FF10BD10B500218D20FFF7ADFFB5
:1031700000211020FFF7A9FF0021AF20FFF7A5FFD6
:1031800010BD70B500241CE004F1B001C8B20021EC
:10319000FFF79BFF00210846FFF797FF0021102053
:1031A000FFF793FF002508E08A4901EBC501085DA0
:1031B0000121FFF78AFF681CC5B2802DF4DB601C7B
:1031C000C4B2082CE0DB70BD70B500240CE0002513
:1031D00006E000207F4901EBC5010855681CC5B217
:1031E000802DF6DB601CC4B2082CF0DBFFF7C9FFB2
:1031F00070BD70B50A46CE1701EB5676C6F3C7030D
:10320000CE1701EB5676F610A1EBC606F4B20122FA
:10321000A240D5B26F4A02EBC002D25C2A436D4E87
:1032200006EBC006F25470BD70B50B46CE1701EB2D
:103230005676C6F3C702CE1701EB5676F610A1EB11
:10324000C606F4B20123A340DDB2624B03EBC00318
:103250009B5CDB435F4E06EBC006B3545D4B03EB58
:10326000C0039B5C2B435B4E06EBC006B354594B2B
:1032700003EBC0039B5CDB43564E06EBC006B35426
:1032800070BD2DE9F84F05460E4617469846002DAD
:103290000ADB802F08DC002E06DBB8F1400F03DCD0
:1032A000BD4201DC464501DDBDE8F88FBD420DD1D0
:1032B000002406E03019C1B22846FFF79AFF601CCF
:1032C000C4B2A8EB0600A042F4DC30E046450CD1C5
:1032D000002406E02919C8B23146FFF78AFF601CB6
:1032E000C4B2781BA042F5DC21E0A8EB060000F098
:1032F000FF0A781B00F0FF0B0AEB8A00400090FBEE
:10330000FBF000F0FF0900240EE004FB09F00A21A5
:1033100090FBF1F03044C0B229190090C8B2009976
:10332000FFF767FF601CC4B2781BA042EDDC00BF52
:10333000BAE72DE9F04306460F469046002544467D
:103340003BE03A1BD1B27219D0B2FFF752FF3A1BE1
:10335000D1B2721BD0B2FFF74CFF3A19D1B2721B37
:10336000D0B2FFF746FF3A19D1B27219D0B2FFF7C7
:1033700040FF7A19D1B23219D0B2FFF73AFF7A1B67
:10338000D1B23219D0B2FFF734FF7A1BD1B2321B5F
:10339000D0B2FFF72EFF7A19D1B2321BD0B2FFF7AD
:1033A00028FF6D1C05FB05F004FB040008FB180951
:1033B000B9F1000F01DD641E6D1E6000604308FB63
:1033C00008F18842BDDABDE8F08300000018024031
:1033D000000C0240B81600202DE9FF4F81B0804656
:1033E0000E461C4600962046E31704EB5373DB1091
:1033F00021464FEAE47C04EB5C7C4FEAEC0CA4EB46
:10340000CC0CBCF1000F02D04FF0010C01E04FF0EA
:10341000000C6344224604EBD27C4FEA6C0C03FBA5
:103420000CF303F0FF0B03982038C7B2002547E0E8
:103430000C2C07D107EB4700FE4901EB800010F888
:1034400005A014E0102C05D1FB4800EB071010F884
:1034500005A00CE0182C07D107EBC700F74901EBDA
:10346000800010F805A002E005B0BDE8F08F4FF035
:1034700000091FE00AF0800020B131464046FFF706
:10348000B8FE03E031464046FFF7CEFE4FEA4A6001
:103490004FEA106A701CC6B20098301AA04205D1DB
:1034A000009E08F1010000F0FF0806E009F10100AC
:1034B00000F0FF09B9F1080FDCDB00BF681CC5B2E2
:1034C0005D45B5DB00BFCFE7F0B506460F461446B5
:1034D0001D4613E022782B4639463046FFF77CFF25
:1034E000284605EBD07106EB6101CEB2C5F1800034
:1034F000B04202DA0026B81CC7B2641C207820282B
:1035000002DB20787E28E5DDF0BD10B50246012003
:1035100000E050430B1EA1F10104E1B2F9D110BD4E
:103520002DE9F04F06468A4691461F46099C002524
:103530002CE0781B401EC1B20A20FFF7E6FFB9FB62
:10354000F0F00A21B0FBF1F201FB1208B8F1000F14
:103550000CD1A34604EBDB71491001FB0561C8B235
:10356000234630225146FFF737FF0DE0A34604EB18
:10357000DB71491001FB0561C8B208F13001CAB224
:1035800023465146FFF728FF681CC5B2BD42D0DB79
:10359000BDE8F08F2DE9FF4F0746884691461C464F
:1035A0004FF0000B0297CDF804802046E11704EBA2
:1035B0005171C1F3C701009160E009FB04F0C1172C
:1035C00000EB51710BEBE101CEB20BF1010000F009
:1035D000FF0B002550E0102C05D1994800EB061098
:1035E000405D03901BE0182C07D106EBC6009549FF
:1035F00001EBC000405D039011E0202C05D1924802
:1036000000EBC610405D039009E0402C05D18F48C7
:1036100000EB4620405D039001E0BDE8FF8F4FF0D6
:10362000000A17E0039800F0010020B14146384637
:10363000FFF7DFFD03E041463846FFF7F5FD03984D
:103640004010039008F1010000F0FF080AF10100AA
:1036500000F0FF0ABAF1080FE4DB781CC7B2029849
:10366000381AA04204D1029F01980830C0B20190DC
:10367000DDF80480681CC5B2A542ACDB0098411E91
:10368000C9B20091002898D100BFC6E7804689469C
:103690000026002749E03FB9102332461821802038
:1036A000FFF778FF701CC6B2464522D14FF0000AE2
:1036B0001AE0002410E000250AE0654800EBC40091
:1036C000415D601E624A02EBC0004155681CC5B2F4
:1036D000082DF2DB601CC4B2902CECDBFFF751FD2F
:1036E0000AF1010000F0FF0A4FEA09105045E0DC42
:1036F0000026781CC7B2102F00D10027002410E04C
:1037000000250AE0524800EBC400415D601E504AAB
:1037100002EBC0004155681CC5B2082DF2DB601CED
:10372000C4B2902CECDBFFF72CFDB4E770B5044677
:103730000D4605F1B001C8B20021FFF7C6FC10210B
:1037400041EA14100021FFF7C0FC04F00F00002133
:10375000FFF7BBFC70BD2DE9F05F05460E4617462E
:103760009846DDF828B04FF00009CA460024E1175A
:1037700004EB5171C910A4EBC10101B901E0601C57
:10378000C4B2344614E021462846FFF7CFFFAA46CC
:103790000AE01BF809000121FFF797FC09F1010974
:1037A0000AF1010000F0FF0ABA45F2DB601CC4B266
:1037B0004445E8DBBDE8F09F1CB501215820FDF72A
:1037C0006DFC48F22200009001208DF804000020DA
:1037D0008DF8060003208DF8050001208DF8070004
:1037E00069461C48FDF7BCF94FF4A0600090012029
:1037F0008DF8040000208DF8060003208DF80500E8
:1038000001208DF8070069461348FDF7A9F94FF428
:103810008050009001208DF8040000208DF80600F3
:1038200003208DF8050001208DF8070069460B483C
:1038300016E00000E64B00085A5000084A560008FF
:103840007C000020DC010020B4020020B404002031
:10385000B8160020000C0240001002400018024080
:10386000FDF77EF9C820FEF74BFE0021AE20FFF7E2
:103870002CFC00210846FFF728FC00211020FFF750
:1038800024FC00214020FFF720FC00218120FFF7CD
:103890001CFC0021CF20FFF718FC0021A120FFF71E
:1038A00014FC0021C820FFF710FC0021A620FFF720
:1038B0000CFC0021A820FFF708FC00213F20FFF7A7
:1038C00004FC0021D320FFF700FC00210846FFF78D
:1038D000FCFB0021D520FFF7F8FB00218020FFF73B
:1038E000F4FB0021D920FFF7F0FB0021F120FFF7C6
:1038F000ECFB0021DA20FFF7E8FB00211220FFF7A4
:10390000E4FB0021DB20FFF7E0FB00214020FFF774
:10391000DCFB00212020FFF7D8FB00210220FFF76D
:10392000D4FB00218D20FFF7D0FB00211420FFF7EE
:10393000CCFB0021A420FFF7C8FB0021A620FFF745
:10394000C4FB0021AF20FFF7C0FBFFF73DFC1CBD0F
:10395000704700000FB4044910B503AA029800F0A4
:10396000DDF810BC5DF814FB480000202DE9F041A3
:103970000E460446002020622046E168884730B3A6
:10398000252805D0D4E901219047206A401CF2E7A0
:10399000E168204600278847050018D0A5F14100BE
:1039A000192802D820354FF40067324629462046B0
:1039B0002760FCF743FC40B1012804D0F61D26F037
:1039C00007060836D8E7361DD6E72846DAE7206A24
:1039D000BDE8F0812DE9F041064600241068752904
:1039E000314616A510D0AFF30080002802DA40421D
:1039F00013A507E031688A0701D512A502E049073F
:103A000004D511A5012401E0AFF3008000210A22B2
:103A100006F1240709E0B0FBF2FCB0FBF2F302FB75
:103A20001C00303078541846491C0028F3D1234636
:103A30002A463046BDE8F04100F017B8000000000B
:103A40002D0000002B000000200000007047704790
:103A50007047704710B500F073F8006810BD10B5DE
:103A6000044600F06DF8046010BD2DE9F0470D46E6
:103A700099469246044600F124080168880604D558
:103A8000E06921F01001216000E00120A84201DD81
:103A9000471B00E00027A1697A1902EB0900081A08
:103AA000A0612078C00602D42046AFF30080002633
:103AB00008E0D4E901211AF806009047206A401C6A
:103AC000761C20624E45F4DB2078C0060AD52046DD
:103AD000AFF3008006E0D4E9012130209047206A4E
:103AE000401C2062381EA7F10107F4DC07E0D4E98E
:103AF000012118F805009047206A401C2062281E0A
:103B0000A5F10105F3DC2046AFF300802078000624
:103B100002D50220BDE8F0870120FBE7074B70B516
:103B20000D467B4400F015F80446284600F024F8C2
:103B300010B14FF0FF3070BD204670BD1FEAFFFF8F
:103B400000487047381B002001694A1C0261087850
:103B5000704700B58FB0CDE90131002105910549CD
:103B60007944CDE9031011466846FFF7FFFE0FB018
:103B700000BD0000E5FFFFFF007B00F08000704704
:103B800000487047381B00207546FFF7F9FFAE4626
:103B900005006946534620F00700854618B020B559
:103BA000FCF7A4FCBDE820404FF000064FF00007F2
:103BB0004FF000084FF0000B21F00701AC46ACE8D5
:103BC000C009ACE8C009ACE8C009ACE8C0098D4642
:103BD000704710B50446AFF300802046BDE81040A2
:103BE000FCF740BB03B401984100009850EAC120A3
:103BF00018BF04204A0D18BF40F0010040F2FF72C8
:103C0000B2EB515F08BF40F00200012808BF052059
:103C100002B070470000000070B52DED020B2DEDD5
:103C20000A8B82B00D98C40F20F00045AE48854243
:103C300048D3AE48854219D30C99C5F31300084305
:103C400009D09DED0C0B02B0BDEC0A8B02B0BDE8B3
:103C5000704000F009BA002C14BF9FEDA50B9DED3C
:103C60000C0B02B0BDEC0A8B02B070BD9FEDA20B35
:103C700053EC102B9DED0C0B51EC100B00F00CFED7
:103C80000AD20220FFF7EBFE02B0BDEC0A8B02B0B5
:103C9000BDE8704000F0F4B99FED990B53EC102B88
:103CA0009DED0C0B51EC100B00F0BCFC0AD2022075
:103CB000FFF7D5FE02B0BDEC0A8B02B0BDE8704044
:103CC00000F0EEB990489FED92BBA8425CD29248BA
:103CD000854219D29148784400EBC40090ED000B66
:103CE00053EC102B9DED0C0B51EC100B00F016FE5D
:103CF00041EC1A0B8A48784400EBC40090ED009B1D
:103D0000C4F10100041B36E09FED870B53EC102B30
:103D10009DED0C0B51EC100B00F0C0FC41EC100BB6
:103D20008348784400EBC40090ED001B51EC100B6D
:103D300053EC112B00F0F6F900F000FC044600F003
:103D40005AFC41EC180B9FED7C0B53EC102B00F050
:103D5000A5FC9DED0C1B53EC112B00F0D3FD41ECA9
:103D60001A0B9FED770B51EC180B53EC102B00F056
:103D700095FC41EC190B51EC1A0B53EC192B00F08C
:103D8000CDFDCDE90C011BE06F48854217D29FEDB8
:103D9000700B53EC102B9DED0C0B51EC100B00F045
:103DA000C1F953EC1B2B00F077FD08D29DED0C0BF5
:103DB00053EC1B2B51EC100B00F0B4F96EE0002417
:103DC0009DED0C0B53EC102B51EC100B00F066FC2E
:103DD00041EC180B60480521B0EE480AF0EE680A85
:103DE000784400F0C5F853EC182B51EC100B00F0A0
:103DF00055FC9DED0C1B53EC112B00F083FD41ECA9
:103E0000180B9FED570B5CB353EC182B51EC100BB8
:103E100000F084FD9DED0C0B41EC1C0B53EC182BBA
:103E200051EC100B00F03AFC53EC1C2B00F02EFA76
:103E300053EC192B00F066FD53EC1A2B00F06EFDCD
:103E400053EC1B2B00F05EFDCDE900016FF47F7099
:103E5000844226DB01EB045001909DED000B00E74E
:103E600053EC102B51EC180B00F058FD9DED0C0B92
:103E700041EC190B53EC182B51EC100B00F00EFC1D
:103E800053EC192B00F002FA9DED0C1B53EC112B97
:103E900000F044FD53EC1B2B00F034FD41EC100B03
:103EA000DFE608464FF07A5101EB04519FED2E0BEF
:103EB000084453EC102B01909DED000B51EC100BBE
:103EC00000F0ECFB0D4645EC100B044651EC100BDA
:103ED000FFF788FE042808BF00F0E2F845EC104B1D
:103EE000BFE6000000000000422E86400000F07F88
:103EF0000000000000000000EF39FAFE422E86406C
:103F000051302DD5104987C0422ED63F0000000009
:103F1000000000000000F03FB2A2F03FDE260000EB
:103F2000CE26000000000000FE822B654715F73FFB
:103F300082260000000000000000E0FE422EE63F66
:103F4000763C7935EF39EA3D0000303E0000000054
:103F50009C7500883CE4377EF425000000000000DA
:103F600000000000000000400000000000007001A0
:103F700070B504462DED028B4D1E00EBC500B0EE72
:103F8000408AF0EE608A90ED000B35F0060017D005
:103F900053EC182B51EC100B00F080FB41EC100B94
:103FA0006D1E04EBC50090ED001B51EC100B53ECA3
:103FB000112B00F0B7F841EC100B35F00600E7D1FB
:103FC000022D36D0042D1CD0062D1CBFBDEC028B5B
:103FD00070BD53EC182B51EC100B00F05FFB94ED0F
:103FE0000A1B53EC112B00F09DF853EC182B00F03A
:103FF00055FB94ED081B53EC112B00F093F841ECAA
:10400000100B53EC182B51EC100B00F047FB94ED08
:10401000061B53EC112B00F085F853EC182B00F025
:104020003DFB94ED040B53EC102B00F07BF841ECBE
:10403000100B53EC182B51EC100B00F02FFB94EDF0
:10404000021B53EC112B00F06DF853EC182B00F011
:1040500025FB94ED001B53EC112B00F063F8BDEC35
:10406000028B41EC100B70BD10B553EC102B51ECD2
:10407000100B00F057F841EC100B10BD00000000D1
:104080009FED050B10B553EC102B51EC100B00F00D
:1040900005FB41EC100B10BD00000000000000709B
:1040A0009FED050B10B553EC102B51EC100B00F0ED
:1040B000F5FA41EC100B10BD0000000000000010EC
:1040C00021F00042A2F16052B2F5801F01F00043DE
:1040D00028BFD2F17F6C0BD95FEA001C43EAC20211
:1040E00042EB507018BF704728BF20F001007047A6
:1040F000B2F5801FBCBF184670474FEA410C1CF553
:10410000001F02D2084600F069BD70B500F070FBD8
:1041100000000089FFF7F6BF4FF00040A0F58000D7
:104120007047000010B591EA030F48BF83F00043C9
:1041300000F1FC83841A71EB030C05D2121943EBD6
:104140000C03001B61EB0C01DFF824E14FEA115472
:10415000A4EB135C1EEA430F18BF9EEA445F73D0C2
:1041600023EA0E03DCF1200E21EA045143F480130C
:1041700032D322FA0CFE10EB0E0023FA0CFE41EBB8
:104180000E01CCF1200E03FA0EFE10EB0E0051F1E1
:104190000001B1F5801FCCF1200E32D201EB0451A9
:1041A00012FA0EF2BDE8104058BF7047401C38BFED
:1041B0005FEA420218BF7047002814BF20F00100D8
:1041C00041F100014FEA410313F5001F38BF70476A
:1041D000A1F1C04100F05ABB012A43EB0302ACF14C
:1041E000200CDCF11F0E32BF4FF0000E23FA0CF34F
:1041F00010EB030041EB0451B4EB115FD0D0A1EB05
:10420000045101F5801149085FEA300001EB0451C7
:104210000ED350F1000038BF12FA0EFE08D1BDE8EF
:104220001040C9E7401C38BF5FEA4202CAD1C3E769
:10423000BDE810404FEA410313F5001F38BF704737
:10424000A1F1C04100F022BB9EEA445F08D011EA10
:104250005E0FBDE8104004BF01F000410020704730
:10426000BDE8104070B500F0C3FA00BF64FBBE3E6D
:104270000000E0FF491058BFC1F140415B1058BF3A
:10428000C3F140438B42EFF3008070472DE9C041FA
:1042900030B4DFF8A0C23CEA111418BF3CEA131492
:1042A00000F0EC8081EA03051CEA111444EAD5749D
:1042B00018BF1CEA131500F0C780A4EB05044FF0EB
:1042C000004545EAC12145EAC32341EA505143EA8A
:1042D000525304F17F74994204F500344FEAC02030
:1042E0004FEAC22208BF904200F09C804FEA13655B
:1042F0000FF24016765D4FEA134506FB05F7C7F14E
:10430000807706FB07F74FEAD737A7FB03687642AB
:10431000C8F58038A7FB06CE38BFA8F1010807FB17
:1043200008E64FF0000EA6FB028CE6FB03CEDCF1A4
:10433000000CCEF1004E38BFAEF1010EA6FB0C58BA
:104340004FF000074FF00005E6FB0E87A1FB08C603
:10435000A0FB07CE16EB0E0645F10005E1FB076555
:1043600015F1E04E7EBFA4F580345FEA46066D414C
:1043700016F1800745F100054FEA17274FEA066658
:1043800047EA0567A6F1DE46B6F1805F4FEA1525DC
:104390001FD9384624F0010C05EBC471BCF1FE6F47
:1043A00001EB0C1102D8F0BCBDE8008124425CBFD7
:1043B00001F5801E9EEAC47F02D4F0BCBDE80081F6
:1043C000244238D4F0BCA1F1C041BDE8004100F066
:1043D0005DBA4FEAD22242EA43524FEAD323A7FB07
:1043E00002864FEAD02040EA415007FB03661EEAEE
:1043F0000E0F4FEAD12105FB026658BFA6EB00560F
:10440000B6EB00564FEA520E4EEAC37E18EB0E0E84
:1044100056EB530EBDD518EB02085E417F1C55F1DB
:104420000005B6E74FF480154FF000074FF0000687
:104430004FF00008ADE7F0BC4FF0000001F1C041C3
:1044400001F00041BDE8008111EA0C1F0CEA1315D0
:1044500000D00CE013EA0C1F00F025804FF00000A4
:10446000F0BC81EA030101F00041BDE80081F0BC2D
:10447000BDE8004181EA030100F008BAF0BCBDE8E4
:10448000004170B500F0B4F9097EFC3E00F007B8B9
:1044900081EA03014FF0000001F00041704781EA1A
:1044A000030100F0F3B9F0BCBDE800414FF000009B
:1044B00021497047FFFDFBF9F7F5F4F2F0EEEDEB63
:1044C000E9E8E6E4E3E1E0DEDDDBDAD8D7D5D4D312
:1044D000D1D0CFCDCCCBCAC8C7C6C5C4C2C1C0BF5E
:1044E000BEBDBCBBBAB9B8B7B6B5B4B3B2B1B0AF64
:1044F000AEADACABAAA9A8A8A7A6A5A4A3A3A2A148
:10450000A09F9F9E9D9C9C9B9A9999989797969502
:1045100095949393929191908F8F8E8E8D8C8C8B9E
:104520008B8A898988888787868585848483838226
:10453000828181800000FF070000F87F4FEA41037D
:104540004FEA5353A3F58063D3F11E03C8BFD3F1E1
:10455000210C0CDD4FF0004242EAC12242EA5052E7
:1045600032FA03FC8CEAE17CACEBE1707047102B73
:10457000C4BF0020704703F5787CBCF1FF3F04D036
:104580006FF0004282EA2100704770B500F030F908
:104590004992248000207047F2E700004FEA11534F
:1045A000A3F58063D3F11E03A8BFD3F1200C08DB71
:1045B0004FF0004242EAC12252EA505232FA03F06E
:1045C000704709420BD4102BC4BF0020704703F57D
:1045D000787CBCF1FF3F05D04FF0FF3070474FF0C3
:1045E0000000704770B500F003F900BF49922480C5
:1045F00000207047F0E710F0004248BF4042B0FA98
:1046000080F310FA03F10AD0C3F11D0303F58063B0
:104610004FEA415002EB035202EBD12170474FF0B9
:104620000000704751EA030C17D41CF5801F58BFD7
:10463000BCF5801F00F10680994218BF704708BF83
:104640009042704707D711F5801F58BF13F5801FA0
:1046500019D499427047894270471CF5801F08D5CC
:10466000BCF5801FF7D58B4218BF704708BF824248
:1046700070474FF4001C1CEB410F38BF1CEB430F7D
:1046800001D28B42704770B500F0B2F89224490015
:104690004FF000514FF08053FFF7ECBDDFF848C1F9
:1046A00070B51CEA111E1EBF1CEA13159EEA0C0F02
:1046B00095EA0C0F00F06F8081EA030423EA4C13A3
:1046C0004EEAD47E21EA4C1141F4801143F4801368
:1046D000AE44A1FB024CA0FB0365AEF17F7E361910
:1046E00055EB0C05A1FB034C4CF10003A0FB021C95
:1046F00016EB0C06654153F10003094218BF46F062
:10470000010613F4007F0BD14FEA03314FEA053065
:10471000340341EA155140EA16506FF003020AE0F3
:104720004FEAC3214FEAC520F40241EA555140EA5D
:1047300056506FF0020202EB2E4201EB025585EA61
:10474000CE710AD05FEA440C18BF24F0004450F147
:10475000000041F1000120EAD47040F2FE7C624585
:1047600000D270BDA84214BF4FF080444FF04044C7
:10477000002E08BF0024BEF1806FA8BFA1F1C04188
:10478000BDE8704080F282804FF0000001F1C0412E
:1047900001F0004170479EEA0C0F0CEA131518BF98
:1047A00095EA0C0F06D04FF0000081EA030E0EF0E0
:1047B000004170BD00F01CF88900013E00F007B810
:1047C00000F009B84FEA430C5FEA5C5C08D081EA6C
:1047D000030100F05BB84FEA410C5FEA5C5CF6D184
:1047E0004FF00000014970470000FF070000F87F0C
:1047F0000EF1020E2EF0030E5EF8046B364205D465
:10480000012A43EB030515F5001F12D8012841EBDF
:10481000010C1CF5001F0CD80ED14FEAD17C15F508
:10482000001F0CEB4C0C0CF1020C08BF4CEBD37CC2
:1048300004E04FF0080C01E04FEAD37C0CEB4C0590
:1048400026FA05F606F00706B6F1040C06D20EEBC2
:10485000860CBDE870404CF0010C6047DFE80CF0BE
:10486000090B02024FF000414FF00000A1F50021BA
:1048700070BD19461046012851EB010418BFD4F54C
:10488000001484BF002001F0004170BD0808A0F5AD
:1048900000114FEA3101704753EA010C17D41CF59F
:1048A000801F58BFBCF5801F00F106808B4218BFE7
:1048B000704708BF8242704707D713F5801F58BF63
:1048C00011F5801F19D48B4270479B4270471CF52D
:1048D000801F08D5BCF5801FF7D5994218BF7047D7
:1048E00008BF904270474FF4001C1CEB430F38BFC9
:1048F0001CEB410F01D2994270470FB40CBC03BCB2
:10490000FFF7C1BE91EA030F10B581F000413FF5FA
:1049100011AC83F0004300F009B8000010B591EA33
:10492000030F48BF83F000433FF504AC841A71EBDA
:10493000030C07D212198CF0004C43EB0C03001B44
:1049400061EB0C01DFF8A4E14FEA1154A4EB135C16
:104950001EEA430F18BF9EEA445F00F0B08023EACE
:104960006E03524221EA0451C3EB6E0338BF5B1E53
:10497000DCF1200E25D322FA0CFE10EB0E0043FAD8
:104980000CFE41EB0E01CCF1200E03FA0EFE10EBF3
:104990000E0051F10001CCF1200E29D412FA0EF2D2
:1049A00001EB0451BDE8104058BF7047401C1CBFCC
:1049B000B2F1004F704700280CBF491C20F00100E5
:1049C000704712EB020E43EB030218BF4FF0010ECB
:1049D0004EEA4202ACF1200CDCF11E0E54D943FA2F
:1049E0000CFE10EB0E0051F1FF31CCF11E0ED5D5AF
:1049F0000EF1010E12FA0EFE404141EB010101EBF6
:104A0000445C5FEA5C5C10D910EBDE7001EB045192
:104A100038BFBEF1004FBDE8104018BF70470028F6
:104A20000CBF491C20F00100704730D24FEAD42C53
:104A300011F5001124F400641BD0B1FA81F20B3A95
:104A4000A41AA41ED2F12003914030FA03F31943B3
:104A5000904001EBCC71002C01EB0451BDE81040FB
:104A6000A8BF704701F1C0414FF0000001F00041C4
:104A70007047B0FA80F310FA03F100D110BDE41AC8
:104A8000173C4805C90AE4E701EB045110BD491081
:104A900001EB0451BDE810404FEA300002E04FF056
:104AA000000170474A0008BF0042F8D0B2F5001F6D
:104AB00028BF704701F000414FF0000070479EEAA8
:104AC000445F07D011EA5E0FBDE8104004BF00212B
:104AD00000207047BDE8104070B5FFF789FE00BFA9
:104AE00040DFF63E83F00041104670470000E0FFD3
:104AF00043004FEAD30C4FEA3C0C43401FBF400732
:104B00000CF1605113F0FE4F70471CF0006F03D1A1
:104B100000200CF0004170470CF0004343EA507055
:104B200010B540EACC0000F00EF800BF0000009283
:104B30004FEA0001FFF7AABE4FF000414FF000001E
:104B4000A1F5002170470EF1020E2EF0030E5EF863
:104B5000044B244204D44FEA4102B2F17F4F11D8F2
:104B60004FEA4003B3F17F4F0CD80ED14FEAD07C0F
:104B7000B2F17F4F0CEB4C0C0CF1020C08BF4CEB6C
:104B8000D17C04E04FF0080C01E04FEAD17C0CEB43
:104B90004C0324FA03F404F00704B4F1040C06D225
:104BA0000EEB840CBDE810404CF0010C6047DFE8D0
:104BB0000CF0070802024FF00040A0F5800010BD85
:104BC0000846420018BFD2F1807288BF00F0004052
:104BD00010BD4FF04070E1EE100A7047FF2141EA2E
:104BE000D050C00570470000000000000000000029
:104BF0000000000000003F40000000000000000036
:104C00003000400030004000000009000BC03D00B3
:104C10000BC03D00090018C024407FE022403180D5
:104C20000000180024C01B000D803240018003806A
:104C30001C4027401C80074000401000600000001E
:104C40000000000000000000000000001F80204065
:104C500040200000402020401F800000000009008C
:104C600006001F80060009000000040004003F80C9
:104C700004000400000000100060000000000000BC
:104C80000000040004000400040004000000000010
:104C900000400000000000000000002001C00600ED
:104CA0003800400000001F802040204020401F802E
:104CB0000000000010403FC000400000000018C08D
:104CC0002140224024401840000010802040244011
:104CD00024401B80000002000D0011003FC0014075
:104CE00000003C80244024402440238000001F809A
:104CF000244024403440038000003000200027C0BE
:104D00003800200000001B802440244024401B80E9
:104D100000001C0022C0224022401F800000000032
:104D200000000840000000000000000000000460D7
:104D3000000000000000000004000A0011002080B4
:104D400040400900090009000900090000000000B6
:104D50004040208011000A00040018002000234079
:104D60002400180000001F802040274029401F40D9
:104D70000000004007C039000F0001C00040204083
:104D80003FC0244024401B8000001F802040204062
:104D900020403080000020403FC0204020401F8045
:104DA000000020403FC024402E4030C00000204082
:104DB0003FC024402E00300000000F001080204033
:104DC00022403380020020403FC0040004003FC066
:104DD0002040204020403FC0204020400000006094
:104DE000202020203FC02000200020403FC0244041
:104DF0000B0030C0204020403FC020400040004019
:104E000000C03FC03C0003C03C003FC00000204049
:104E10003FC00C4023003FC020001F8020402040A6
:104E200020401F80000020403FC024402400180084
:104E300000001F802140214020E01FA000002040F2
:104E40003FC02440260019C0004018C02440244020
:104E5000224031800000300020403FC02040300020
:104E6000000020003F80004000403F8020002000E4
:104E70003E0001C0070038002000380007C03C0099
:104E800007C038000000204039C0060039C020406B
:104E900000002000384007C03840200000003040AB
:104EA00021C02640384020C00000000000007FE004
:104EB000402040200000000070000C0003800040F3
:104EC00000000000402040207FE0000000000000C3
:104ED0002000400020000000000000100010001022
:104EE0000010001000100000000040000000000052
:104EF0000000000002800540054003C00040200083
:104F00003FC00440044003800000000003800440D0
:104F100004400640000000000380044024403FC0DD
:104F200000400000038005400540034000000000F1
:104F300004401FC0244024402000000002E005502F
:104F400005500650042020403FC00440040003C028
:104F500000400000044027C0004000000000001096
:104F60000010041027E00000000020403FC0014076
:104F7000070004C00440204020403FC000400040E3
:104F8000000007C0040007C0040003C00000044084
:104F900007C00440040003C0004000000380044038
:104FA000044003800000041007F004500440038014
:104FB0000000000003800440045007F0001004408B
:104FC00007C0024004000400000000000640054045
:104FD000054004C00000000004001F8004400040A1
:104FE0000000040007800040044007C000400400A7
:104FF000070004C0018006000400060001C007008D
:1050000001C006000000044006C0010006C00440C4
:1050100000000410071004E00180060004000000F6
:10502000044005C0064004400000000000000400E9
:105030007BE040200000000000000000FFF00000C6
:105040000000000040207BE0040000000000400061
:105050008000400020002000400000000000000010
:105060000000000000000000000000000000000040
:105070001FCC000C00000000000000000800300001
:1050800060000800300060000000022003FC1E20C9
:10509000022003FC1E200220000000000E18110454
:1050A0003FFF10840C78000000000F0010840F38C0
:1050B00000C0077818840078000000780F8410C4BE
:1050C00011240E9800E400840008080068007000B5
:1050D00000000000000000000000000000000000D0
:1050E00007E01818200440020000000040022004DD
:1050F000181807E000000000000002400240018094
:105100000FF001800240024000000080008000801B
:105110000FF800800080008000000001000D000EEC
:10512000000000000000000000000000008000807F
:10513000008000800080008000800000000C000CD7
:105140000000000000000000000000000006001841
:1051500000600180060018002000000007F0080829
:1051600010041004080807F00000000008040804F8
:105170001FFC000400040000000000000E0C1014CE
:105180001024104411840E0C000000000C181004B0
:105190001104110412880C700000000000E00320CC
:1051A000042408241FFC0024000000001F98108421
:1051B00011041104108810700000000007F0088826
:1051C0001104110418880070000000001C00100079
:1051D00010FC13001C001000000000000E381144E9
:1051E0001084108411440E38000000000700088C61
:1051F00010441044088807F0000000000000000080
:10520000030C030C0000000000000000000000017F
:1052100001060000000000000000000000800140C6
:1052200002200410080810040000022002200220BE
:1052300002200220022002200000000010040808C2
:105240000410022001400080000000000E00120047
:10525000100C106C10800F00000003E00C1813E419
:10526000142417C4082807D000000004003C03C41D
:105270001C40074000E4001C000410041FFC110443
:10528000110411040E880070000003E00C181004D3
:105290001004100410081C10000010041FFC10045F
:1052A00010041004080807F0000010041FFC11048B
:1052B000110417C410040818000010041FFC110486
:1052C000110017C010000800000003E00C181004C3
:1052D000100410441C780040000010041FFC1084CF
:1052E0000080008010841FFC1004000010041004D3
:1052F0001FFC100410040000000000030001100156
:1053000010011FFE10001000000010041FFC11040B
:1053100003801464181C1004000010041FFC100407
:10532000000400040004000C000010041FFC1F0017
:1053300000FC1F001FFC1004000010041FFC0C04E4
:10534000030000E010181FFC100007F0080810040C
:1053500010041004080807F0000010041FFC10845B
:105360001080108010800F00000007F00818102433
:105370001024101C080A07F2000010041FFC11047E
:10538000110011C011300E0C000400000E1C11049D
:105390001084108410441C38000018001000100401
:1053A0001FFC100410001800000010001FF810046B
:1053B0000004000410041FF8100010001E0011E08B
:1053C000001C007013801C0010001FC0103C00E087
:1053D0001F0000E0103C1FC000001004180C163421
:1053E00001C001C01634180C100410001C00130476
:1053F00000FC13041C00100000000804101C1064C2
:10540000108413041C0410180000000000000000A9
:105410007FFE4002400240020000000030000C000D
:1054200003800060001C00030000000040024002F6
:1054300040027FFE0000000000000000000020008D
:105440004000400040002000000000010001000179
:1054500000010001000100010001000040004000C7
:10546000200000000000000000000000009801245F
:1054700001440144014400FC000410001FFC0088AA
:105480000104010400880070000000000070008822
:10549000010401040104008800000000007000887D
:1054A0000104010411081FFC0004000000F801447D
:1054B00001440144014400C800000000010401044B
:1054C0000FFC1104110411001800000000D601297E
:1054D0000129012901C90106000010041FFC0084F4
:1054E00001000100010400FC000400000104190493
:1054F00019FC00040004000000000000000300018B
:105500000101190119FE0000000010041FFC002415
:10551000004001B4010C010400000000100410045C
:105520001FFC0004000400000000010401FC010451
:10553000010001FC0104010000FC010401FC0084E5
:1055400001000100010400FC0004000000F8010457
:1055500001040104010400F80000010101FF0085BD
:105560000104010400880070000000000070008841
:1055700001040104010501FF00010104010401FC13
:1055800000840104010001800000000000CC01241F
:105590000124012401240198000000000100010001
:1055A00007F80104010400000000010001F80004F4
:1055B00000040004010801FC0004010001800170E6
:1055C000000C001001600180010001F0010C0030AE
:1055D00001C00030010C01F0010000000104018C49
:1055E00000740170018C010400000101018101714E
:1055F000000E001801600180010000000184010C10
:10560000013401440184010C00000000000000008E
:10561000000001003EFC40024002000000000000CB
:105620000000FFFF000000000000000040024002F8
:105630003EFC01000000000000000000600080004F
:10564000800040004000200020000000000000001A
:10565000000000000000000000000000000000004A
:10566000000000000000000000000000000000003A
:10567000000000000000000000000000000F803863
:105680000FFE380F8038000000000000000000000E
:1056900000000000000000000100000600000C00F7
:1056A000003800003100000600000C000038000047
:1056B0003000000000000000000061800067F80773
:1056C000F980006180006180006180006180006776
:1056D000F807F98000618000000000000000000071
:1056E00001C0E003E0F00630080418081FFFFE04C4
:1056F0000E080787F00381E000000000000001F0C1
:1057000000060C00040408060C7001F9C0000E002D
:10571000003BE000EC18070808040C180003E00048
:1057200000000001E00007F003F818041C0804174B
:105730000807E1D003C0E00023B0003C08002008C7
:1057400000001000000000000001000031000032E5
:1057500000001C000000000000000000000000002D
:105760000000000000000000000000000000000039
:10577000000000000000000000007F0001FFC007E3
:1057800080F00C001810000420000200000000004F
:10579000002000021000040C00180780F001FFC078
:1057A000007F00000000000000000000000000007A
:1057B0000000000000004200006600006600003C9F
:1057C0000000180003FFC0001800003C0000660045
:1057D0000066000042000000000008000008000011
:1057E000080000080000080001FFC00008000008D1
:1057F0000000080000080000080000000000000190
:1058000000003100003200001C0000000000000019
:105810000000000000000000000000000000000088
:105820000000080000080000080000080000080050
:105830000008000008000008000008000008000040
:1058400000000000000000000000380000380000E8
:105850003800000000000000000000000000000010
:1058600000000000000000000000000600001C0016
:105870000070000180000E0000380000C00007002A
:10588000001C0000300000000000000000007F80CD
:1058900001FFE003807006001804000804000806F9
:1058A000001803807001FFE0007F8000000000000E
:1058B0000000000001000801000801000803FFF8D3
:1058C00007FFF800000800000800000800000000C2
:1058D000000000000001C03802C058040098040114
:1058E00018040218040418061C1803F81801E0F83C
:1058F00000000000000000000001C0E003C0F00450
:10590000000804080804080806180803F41801E74A
:10591000F00001E0000000000000000000000300B3
:10592000000D00001100006100008108030108075C
:10593000FFF80FFFF8000108000108000000000058
:10594000000000E007FCD006080806100806100852
:10595000061008061838060FF00607C00000000001
:105960000000000000003F8001FFE00384300208D7
:1059700018041008041008041008071810030FF08A
:105980000007C000000000000000000003C0000786
:1059900000000600000600F80607F806180006E0FA
:1059A0000007000006000000000000000001E1E028
:1059B00003F7F0063410041808041808040C08044F
:1059C0000C0806161803F3F001C1E0000000000007
:1059D0000000F80003FC3003063804020804020843
:1059E0000402080404100308F001FFC0007F000057
:1059F00000000000000000000000000000000000A7
:105A0000000070380070380070380000000000009E
:105A10000000000000000000000000000000000086
:105A2000000000000000301A00301C0000000000E0
:105A30000000000000000000000000000000000066
:105A400000080000140000220000410000808001D6
:105A500000400200200400100800080000000000C0
:105A60000000210000210000210000210000210091
:105A70000021000021000021000021000021000081
:105A800000000000000000000800080400100200F0
:105A9000200100400080800041000022000014002E
:105AA00000080000000000000003C00004C0000463
:105AB0000000080038080F380808380810000C30BB
:105AC0000007E00003C000000000000000003F806D
:105AD00000FFE0038070020F1006708804C0880485
